{
  "contractName": "TestToken",
  "abi": [
    {
      "inputs": [
        {
          "internalType": "address",
          "name": "taxRecipientAddr",
          "type": "address"
        }
      ],
      "payable": false,
      "stateMutability": "nonpayable",
      "type": "constructor"
    },
    {
      "anonymous": false,
      "inputs": [
        {
          "indexed": true,
          "internalType": "address",
          "name": "owner",
          "type": "address"
        },
        {
          "indexed": true,
          "internalType": "address",
          "name": "spender",
          "type": "address"
        },
        {
          "indexed": false,
          "internalType": "uint256",
          "name": "value",
          "type": "uint256"
        }
      ],
      "name": "Approval",
      "type": "event"
    },
    {
      "anonymous": false,
      "inputs": [
        {
          "indexed": true,
          "internalType": "address",
          "name": "previousOwner",
          "type": "address"
        },
        {
          "indexed": true,
          "internalType": "address",
          "name": "newOwner",
          "type": "address"
        }
      ],
      "name": "OwnershipTransferred",
      "type": "event"
    },
    {
      "anonymous": false,
      "inputs": [
        {
          "indexed": false,
          "internalType": "address",
          "name": "account",
          "type": "address"
        }
      ],
      "name": "Paused",
      "type": "event"
    },
    {
      "anonymous": false,
      "inputs": [
        {
          "indexed": true,
          "internalType": "address",
          "name": "account",
          "type": "address"
        }
      ],
      "name": "PauserAdded",
      "type": "event"
    },
    {
      "anonymous": false,
      "inputs": [
        {
          "indexed": true,
          "internalType": "address",
          "name": "account",
          "type": "address"
        }
      ],
      "name": "PauserRemoved",
      "type": "event"
    },
    {
      "anonymous": false,
      "inputs": [
        {
          "indexed": false,
          "internalType": "uint256",
          "name": "oldAmount",
          "type": "uint256"
        },
        {
          "indexed": false,
          "internalType": "uint256",
          "name": "oldShift",
          "type": "uint256"
        },
        {
          "indexed": false,
          "internalType": "uint256",
          "name": "newAmount",
          "type": "uint256"
        },
        {
          "indexed": false,
          "internalType": "uint256",
          "name": "newShift",
          "type": "uint256"
        }
      ],
      "name": "TaxChange",
      "type": "event"
    },
    {
      "anonymous": false,
      "inputs": [
        {
          "indexed": true,
          "internalType": "address",
          "name": "from",
          "type": "address"
        },
        {
          "indexed": true,
          "internalType": "address",
          "name": "to",
          "type": "address"
        },
        {
          "indexed": false,
          "internalType": "uint256",
          "name": "value",
          "type": "uint256"
        }
      ],
      "name": "Transfer",
      "type": "event"
    },
    {
      "anonymous": false,
      "inputs": [
        {
          "indexed": false,
          "internalType": "address",
          "name": "account",
          "type": "address"
        }
      ],
      "name": "Unpaused",
      "type": "event"
    },
    {
      "constant": true,
      "inputs": [],
      "name": "INITIAL_SUPPLY",
      "outputs": [
        {
          "internalType": "uint256",
          "name": "",
          "type": "uint256"
        }
      ],
      "payable": false,
      "stateMutability": "view",
      "type": "function"
    },
    {
      "constant": true,
      "inputs": [],
      "name": "_allowInvestBack",
      "outputs": [
        {
          "internalType": "bool",
          "name": "",
          "type": "bool"
        }
      ],
      "payable": false,
      "stateMutability": "view",
      "type": "function"
    },
    {
      "constant": true,
      "inputs": [],
      "name": "_alreadyDistributed",
      "outputs": [
        {
          "internalType": "bool",
          "name": "",
          "type": "bool"
        }
      ],
      "payable": false,
      "stateMutability": "view",
      "type": "function"
    },
    {
      "constant": true,
      "inputs": [],
      "name": "_communityEarning",
      "outputs": [
        {
          "internalType": "address",
          "name": "",
          "type": "address"
        }
      ],
      "payable": false,
      "stateMutability": "view",
      "type": "function"
    },
    {
      "constant": true,
      "inputs": [],
      "name": "_ecosystem",
      "outputs": [
        {
          "internalType": "address",
          "name": "",
          "type": "address"
        }
      ],
      "payable": false,
      "stateMutability": "view",
      "type": "function"
    },
    {
      "constant": true,
      "inputs": [],
      "name": "_firstDayDate",
      "outputs": [
        {
          "internalType": "uint256",
          "name": "",
          "type": "uint256"
        }
      ],
      "payable": false,
      "stateMutability": "view",
      "type": "function"
    },
    {
      "constant": true,
      "inputs": [],
      "name": "_foundation",
      "outputs": [
        {
          "internalType": "address",
          "name": "",
          "type": "address"
        }
      ],
      "payable": false,
      "stateMutability": "view",
      "type": "function"
    },
    {
      "constant": true,
      "inputs": [],
      "name": "_foundersEarning",
      "outputs": [
        {
          "internalType": "address",
          "name": "",
          "type": "address"
        }
      ],
      "payable": false,
      "stateMutability": "view",
      "type": "function"
    },
    {
      "constant": true,
      "inputs": [],
      "name": "_investBackValue",
      "outputs": [
        {
          "internalType": "uint256",
          "name": "",
          "type": "uint256"
        }
      ],
      "payable": false,
      "stateMutability": "view",
      "type": "function"
    },
    {
      "constant": true,
      "inputs": [],
      "name": "_liquity",
      "outputs": [
        {
          "internalType": "address",
          "name": "",
          "type": "address"
        }
      ],
      "payable": false,
      "stateMutability": "view",
      "type": "function"
    },
    {
      "constant": true,
      "inputs": [],
      "name": "_privateEarning",
      "outputs": [
        {
          "internalType": "address",
          "name": "",
          "type": "address"
        }
      ],
      "payable": false,
      "stateMutability": "view",
      "type": "function"
    },
    {
      "constant": true,
      "inputs": [],
      "name": "_salesEarning",
      "outputs": [
        {
          "internalType": "address",
          "name": "",
          "type": "address"
        }
      ],
      "payable": false,
      "stateMutability": "view",
      "type": "function"
    },
    {
      "constant": true,
      "inputs": [],
      "name": "_stakingAmountValue",
      "outputs": [
        {
          "internalType": "uint256",
          "name": "",
          "type": "uint256"
        }
      ],
      "payable": false,
      "stateMutability": "view",
      "type": "function"
    },
    {
      "constant": true,
      "inputs": [],
      "name": "_teamEarning",
      "outputs": [
        {
          "internalType": "address",
          "name": "",
          "type": "address"
        }
      ],
      "payable": false,
      "stateMutability": "view",
      "type": "function"
    },
    {
      "constant": true,
      "inputs": [],
      "name": "_tech",
      "outputs": [
        {
          "internalType": "address",
          "name": "",
          "type": "address"
        }
      ],
      "payable": false,
      "stateMutability": "view",
      "type": "function"
    },
    {
      "constant": false,
      "inputs": [
        {
          "internalType": "address",
          "name": "account",
          "type": "address"
        }
      ],
      "name": "addPauser",
      "outputs": [],
      "payable": false,
      "stateMutability": "nonpayable",
      "type": "function"
    },
    {
      "constant": true,
      "inputs": [
        {
          "internalType": "address",
          "name": "owner",
          "type": "address"
        },
        {
          "internalType": "address",
          "name": "spender",
          "type": "address"
        }
      ],
      "name": "allowance",
      "outputs": [
        {
          "internalType": "uint256",
          "name": "",
          "type": "uint256"
        }
      ],
      "payable": false,
      "stateMutability": "view",
      "type": "function"
    },
    {
      "constant": false,
      "inputs": [
        {
          "internalType": "address",
          "name": "spender",
          "type": "address"
        },
        {
          "internalType": "uint256",
          "name": "value",
          "type": "uint256"
        }
      ],
      "name": "approve",
      "outputs": [
        {
          "internalType": "bool",
          "name": "",
          "type": "bool"
        }
      ],
      "payable": false,
      "stateMutability": "nonpayable",
      "type": "function"
    },
    {
      "constant": true,
      "inputs": [
        {
          "internalType": "address",
          "name": "account",
          "type": "address"
        }
      ],
      "name": "balanceOf",
      "outputs": [
        {
          "internalType": "uint256",
          "name": "",
          "type": "uint256"
        }
      ],
      "payable": false,
      "stateMutability": "view",
      "type": "function"
    },
    {
      "constant": false,
      "inputs": [
        {
          "internalType": "uint256",
          "name": "amount",
          "type": "uint256"
        }
      ],
      "name": "burn",
      "outputs": [],
      "payable": false,
      "stateMutability": "nonpayable",
      "type": "function"
    },
    {
      "constant": false,
      "inputs": [
        {
          "internalType": "address",
          "name": "account",
          "type": "address"
        },
        {
          "internalType": "uint256",
          "name": "amount",
          "type": "uint256"
        }
      ],
      "name": "burnFrom",
      "outputs": [],
      "payable": false,
      "stateMutability": "nonpayable",
      "type": "function"
    },
    {
      "constant": true,
      "inputs": [],
      "name": "decimals",
      "outputs": [
        {
          "internalType": "uint8",
          "name": "",
          "type": "uint8"
        }
      ],
      "payable": false,
      "stateMutability": "view",
      "type": "function"
    },
    {
      "constant": false,
      "inputs": [
        {
          "internalType": "address",
          "name": "spender",
          "type": "address"
        },
        {
          "internalType": "uint256",
          "name": "subtractedValue",
          "type": "uint256"
        }
      ],
      "name": "decreaseAllowance",
      "outputs": [
        {
          "internalType": "bool",
          "name": "",
          "type": "bool"
        }
      ],
      "payable": false,
      "stateMutability": "nonpayable",
      "type": "function"
    },
    {
      "constant": false,
      "inputs": [
        {
          "internalType": "address",
          "name": "spender",
          "type": "address"
        },
        {
          "internalType": "uint256",
          "name": "addedValue",
          "type": "uint256"
        }
      ],
      "name": "increaseAllowance",
      "outputs": [
        {
          "internalType": "bool",
          "name": "",
          "type": "bool"
        }
      ],
      "payable": false,
      "stateMutability": "nonpayable",
      "type": "function"
    },
    {
      "constant": true,
      "inputs": [],
      "name": "isOwner",
      "outputs": [
        {
          "internalType": "bool",
          "name": "",
          "type": "bool"
        }
      ],
      "payable": false,
      "stateMutability": "view",
      "type": "function"
    },
    {
      "constant": true,
      "inputs": [
        {
          "internalType": "address",
          "name": "account",
          "type": "address"
        }
      ],
      "name": "isPauser",
      "outputs": [
        {
          "internalType": "bool",
          "name": "",
          "type": "bool"
        }
      ],
      "payable": false,
      "stateMutability": "view",
      "type": "function"
    },
    {
      "constant": true,
      "inputs": [],
      "name": "name",
      "outputs": [
        {
          "internalType": "string",
          "name": "",
          "type": "string"
        }
      ],
      "payable": false,
      "stateMutability": "view",
      "type": "function"
    },
    {
      "constant": true,
      "inputs": [],
      "name": "owner",
      "outputs": [
        {
          "internalType": "address",
          "name": "",
          "type": "address"
        }
      ],
      "payable": false,
      "stateMutability": "view",
      "type": "function"
    },
    {
      "constant": false,
      "inputs": [],
      "name": "pause",
      "outputs": [],
      "payable": false,
      "stateMutability": "nonpayable",
      "type": "function"
    },
    {
      "constant": true,
      "inputs": [],
      "name": "paused",
      "outputs": [
        {
          "internalType": "bool",
          "name": "",
          "type": "bool"
        }
      ],
      "payable": false,
      "stateMutability": "view",
      "type": "function"
    },
    {
      "constant": false,
      "inputs": [],
      "name": "renounceOwnership",
      "outputs": [],
      "payable": false,
      "stateMutability": "nonpayable",
      "type": "function"
    },
    {
      "constant": false,
      "inputs": [],
      "name": "renouncePauser",
      "outputs": [],
      "payable": false,
      "stateMutability": "nonpayable",
      "type": "function"
    },
    {
      "constant": true,
      "inputs": [],
      "name": "symbol",
      "outputs": [
        {
          "internalType": "string",
          "name": "",
          "type": "string"
        }
      ],
      "payable": false,
      "stateMutability": "view",
      "type": "function"
    },
    {
      "constant": true,
      "inputs": [],
      "name": "totalSupply",
      "outputs": [
        {
          "internalType": "uint256",
          "name": "",
          "type": "uint256"
        }
      ],
      "payable": false,
      "stateMutability": "view",
      "type": "function"
    },
    {
      "constant": false,
      "inputs": [
        {
          "internalType": "address",
          "name": "newOwner",
          "type": "address"
        }
      ],
      "name": "transferOwnership",
      "outputs": [],
      "payable": false,
      "stateMutability": "nonpayable",
      "type": "function"
    },
    {
      "constant": false,
      "inputs": [],
      "name": "unpause",
      "outputs": [],
      "payable": false,
      "stateMutability": "nonpayable",
      "type": "function"
    },
    {
      "constant": false,
      "inputs": [
        {
          "internalType": "address payable",
          "name": "privateEarning",
          "type": "address"
        },
        {
          "internalType": "address payable",
          "name": "teamEarning",
          "type": "address"
        },
        {
          "internalType": "address payable",
          "name": "foundersEarning",
          "type": "address"
        },
        {
          "internalType": "address payable",
          "name": "salesEarning",
          "type": "address"
        },
        {
          "internalType": "address payable",
          "name": "communityEarning",
          "type": "address"
        },
        {
          "internalType": "address payable",
          "name": "foundation",
          "type": "address"
        },
        {
          "internalType": "address payable",
          "name": "ecosystem",
          "type": "address"
        },
        {
          "internalType": "address payable",
          "name": "liquity",
          "type": "address"
        },
        {
          "internalType": "address payable",
          "name": "tech",
          "type": "address"
        }
      ],
      "name": "initialDistribution",
      "outputs": [],
      "payable": false,
      "stateMutability": "nonpayable",
      "type": "function"
    },
    {
      "constant": false,
      "inputs": [
        {
          "internalType": "address",
          "name": "to",
          "type": "address"
        },
        {
          "internalType": "uint256",
          "name": "value",
          "type": "uint256"
        }
      ],
      "name": "transfer",
      "outputs": [
        {
          "internalType": "bool",
          "name": "",
          "type": "bool"
        }
      ],
      "payable": false,
      "stateMutability": "nonpayable",
      "type": "function"
    },
    {
      "constant": false,
      "inputs": [
        {
          "internalType": "address",
          "name": "from",
          "type": "address"
        },
        {
          "internalType": "address",
          "name": "to",
          "type": "address"
        },
        {
          "internalType": "uint256",
          "name": "value",
          "type": "uint256"
        }
      ],
      "name": "transferFrom",
      "outputs": [
        {
          "internalType": "bool",
          "name": "",
          "type": "bool"
        }
      ],
      "payable": false,
      "stateMutability": "nonpayable",
      "type": "function"
    },
    {
      "constant": false,
      "inputs": [
        {
          "internalType": "address[]",
          "name": "recipients",
          "type": "address[]"
        },
        {
          "internalType": "uint256[]",
          "name": "values",
          "type": "uint256[]"
        },
        {
          "internalType": "address",
          "name": "from",
          "type": "address"
        }
      ],
      "name": "sendBatch",
      "outputs": [
        {
          "internalType": "bool",
          "name": "",
          "type": "bool"
        }
      ],
      "payable": false,
      "stateMutability": "nonpayable",
      "type": "function"
    },
    {
      "constant": true,
      "inputs": [
        {
          "internalType": "address",
          "name": "account",
          "type": "address"
        }
      ],
      "name": "isExcludedFromFee",
      "outputs": [
        {
          "internalType": "bool",
          "name": "",
          "type": "bool"
        }
      ],
      "payable": false,
      "stateMutability": "view",
      "type": "function"
    },
    {
      "constant": false,
      "inputs": [
        {
          "internalType": "address",
          "name": "account",
          "type": "address"
        }
      ],
      "name": "includeInFee",
      "outputs": [],
      "payable": false,
      "stateMutability": "nonpayable",
      "type": "function"
    },
    {
      "constant": false,
      "inputs": [
        {
          "internalType": "address",
          "name": "account",
          "type": "address"
        }
      ],
      "name": "excludeFromFee",
      "outputs": [],
      "payable": false,
      "stateMutability": "nonpayable",
      "type": "function"
    },
    {
      "constant": false,
      "inputs": [],
      "name": "disableInvestBack",
      "outputs": [],
      "payable": false,
      "stateMutability": "nonpayable",
      "type": "function"
    },
    {
      "constant": false,
      "inputs": [],
      "name": "allowInvestBack",
      "outputs": [],
      "payable": false,
      "stateMutability": "nonpayable",
      "type": "function"
    },
    {
      "constant": false,
      "inputs": [
        {
          "internalType": "uint256",
          "name": "_stake",
          "type": "uint256"
        }
      ],
      "name": "createStake",
      "outputs": [],
      "payable": false,
      "stateMutability": "nonpayable",
      "type": "function"
    },
    {
      "constant": false,
      "inputs": [],
      "name": "removeStake",
      "outputs": [],
      "payable": false,
      "stateMutability": "nonpayable",
      "type": "function"
    },
    {
      "constant": true,
      "inputs": [
        {
          "internalType": "address",
          "name": "_stakeholder",
          "type": "address"
        }
      ],
      "name": "stakeOf",
      "outputs": [
        {
          "internalType": "uint256",
          "name": "",
          "type": "uint256"
        }
      ],
      "payable": false,
      "stateMutability": "view",
      "type": "function"
    },
    {
      "constant": true,
      "inputs": [],
      "name": "totalStakes",
      "outputs": [
        {
          "internalType": "uint256",
          "name": "",
          "type": "uint256"
        }
      ],
      "payable": false,
      "stateMutability": "view",
      "type": "function"
    },
    {
      "constant": true,
      "inputs": [
        {
          "internalType": "address",
          "name": "_address",
          "type": "address"
        }
      ],
      "name": "isStakeholder",
      "outputs": [
        {
          "internalType": "bool",
          "name": "",
          "type": "bool"
        },
        {
          "internalType": "uint256",
          "name": "",
          "type": "uint256"
        }
      ],
      "payable": false,
      "stateMutability": "view",
      "type": "function"
    },
    {
      "constant": false,
      "inputs": [
        {
          "internalType": "address",
          "name": "_stakeholder",
          "type": "address"
        }
      ],
      "name": "addStakeholder",
      "outputs": [],
      "payable": false,
      "stateMutability": "nonpayable",
      "type": "function"
    },
    {
      "constant": true,
      "inputs": [
        {
          "internalType": "address",
          "name": "_stakeholder",
          "type": "address"
        }
      ],
      "name": "rewardOf",
      "outputs": [
        {
          "internalType": "uint256",
          "name": "",
          "type": "uint256"
        }
      ],
      "payable": false,
      "stateMutability": "view",
      "type": "function"
    },
    {
      "constant": true,
      "inputs": [],
      "name": "totalRewards",
      "outputs": [
        {
          "internalType": "uint256",
          "name": "",
          "type": "uint256"
        }
      ],
      "payable": false,
      "stateMutability": "view",
      "type": "function"
    },
    {
      "constant": true,
      "inputs": [
        {
          "internalType": "address",
          "name": "_stakeholder",
          "type": "address"
        }
      ],
      "name": "calculateReward",
      "outputs": [
        {
          "internalType": "uint256",
          "name": "",
          "type": "uint256"
        }
      ],
      "payable": false,
      "stateMutability": "view",
      "type": "function"
    },
    {
      "constant": false,
      "inputs": [],
      "name": "distributeRewards",
      "outputs": [],
      "payable": false,
      "stateMutability": "nonpayable",
      "type": "function"
    },
    {
      "constant": false,
      "inputs": [],
      "name": "withdrawReward",
      "outputs": [],
      "payable": false,
      "stateMutability": "nonpayable",
      "type": "function"
    },
    {
      "constant": false,
      "inputs": [
        {
          "internalType": "uint256",
          "name": "amount",
          "type": "uint256"
        }
      ],
      "name": "changeInvestBackFee",
      "outputs": [],
      "payable": false,
      "stateMutability": "nonpayable",
      "type": "function"
    },
    {
      "constant": false,
      "inputs": [
        {
          "internalType": "uint256",
          "name": "amount",
          "type": "uint256"
        }
      ],
      "name": "changeStakeFee",
      "outputs": [],
      "payable": false,
      "stateMutability": "nonpayable",
      "type": "function"
    },
    {
      "constant": true,
      "inputs": [],
      "name": "taxRecipientAddr",
      "outputs": [
        {
          "internalType": "address",
          "name": "",
          "type": "address"
        }
      ],
      "payable": false,
      "stateMutability": "view",
      "type": "function"
    },
    {
      "constant": true,
      "inputs": [],
      "name": "currentTaxAmount",
      "outputs": [
        {
          "internalType": "uint256",
          "name": "",
          "type": "uint256"
        }
      ],
      "payable": false,
      "stateMutability": "view",
      "type": "function"
    },
    {
      "constant": true,
      "inputs": [],
      "name": "currentTaxShift",
      "outputs": [
        {
          "internalType": "uint256",
          "name": "",
          "type": "uint256"
        }
      ],
      "payable": false,
      "stateMutability": "view",
      "type": "function"
    },
    {
      "constant": false,
      "inputs": [
        {
          "internalType": "uint256",
          "name": "amount",
          "type": "uint256"
        },
        {
          "internalType": "uint256",
          "name": "shift",
          "type": "uint256"
        }
      ],
      "name": "changeTax",
      "outputs": [],
      "payable": false,
      "stateMutability": "nonpayable",
      "type": "function"
    }
  ],
  "bytecode": "0x60806040523480156200001157600080fd5b506040516200680238038062006802833981810160405260208110156200003757600080fd5b81019080805190602001909291905050506040518060400160405280600f81526020017f54657374202d20576f726b73686f7000000000000000000000000000000000008152506040518060400160405280600481526020017f54657374000000000000000000000000000000000000000000000000000000008152506012620000d6620000ca6200031d60201b60201c565b6200032560201b60201c565b6000600460006101000a81548160ff02191690831515021790555082600590805190602001906200010992919062000aaf565b5081600690805190602001906200012292919062000aaf565b5080600760006101000a81548160ff021916908360ff160217905550505050620001516200031d60201b60201c565b600760016101000a81548173ffffffffffffffffffffffffffffffffffffffff021916908373ffffffffffffffffffffffffffffffffffffffff160217905550600760019054906101000a900473ffffffffffffffffffffffffffffffffffffffff1673ffffffffffffffffffffffffffffffffffffffff16600073ffffffffffffffffffffffffffffffffffffffff167f8be0079c531659141344cd1fd0a4f28419497f9722a3daafe3b4186f6b6457e060405160405180910390a36200022c336b033b2e3c9fd0803ce80000006200038660201b60201c565b426015819055506000601760006101000a81548160ff0219169083151502179055506001600b60003073ffffffffffffffffffffffffffffffffffffffff1673ffffffffffffffffffffffffffffffffffffffff16815260200190815260200160002060006101000a81548160ff0219169083151502179055506000601760016101000a81548160ff02191690831515021790555080600860006101000a81548173ffffffffffffffffffffffffffffffffffffffff021916908373ffffffffffffffffffffffffffffffffffffffff16021790555062000316600960016200055060201b60201c565b5062000b5e565b600033905090565b62000340816003620006da60201b620057771790919060201c565b8073ffffffffffffffffffffffffffffffffffffffff167f6719d08c1888103bea251a4ed56406bd0c3e69723c8a1686e017e7bbe159b6f860405160405180910390a250565b600073ffffffffffffffffffffffffffffffffffffffff168273ffffffffffffffffffffffffffffffffffffffff1614156200042a576040517f08c379a000000000000000000000000000000000000000000000000000000000815260040180806020018281038252601f8152602001807f45524332303a206d696e7420746f20746865207a65726f20616464726573730081525060200191505060405180910390fd5b6200044681600254620007be60201b62003bff1790919060201c565b600281905550620004a4816000808573ffffffffffffffffffffffffffffffffffffffff1673ffffffffffffffffffffffffffffffffffffffff16815260200190815260200160002054620007be60201b62003bff1790919060201c565b6000808473ffffffffffffffffffffffffffffffffffffffff1673ffffffffffffffffffffffffffffffffffffffff168152602001908152602001600020819055508173ffffffffffffffffffffffffffffffffffffffff16600073ffffffffffffffffffffffffffffffffffffffff167fddf252ad1be2c89b69c2b068fc378daa952ba7f163c4a11628f55a4df523b3ef836040518082815260200191505060405180910390a35050565b620005606200084760201b60201c565b620005d3576040517f08c379a00000000000000000000000000000000000000000000000000000000081526004018080602001828103825260208152602001807f4f776e61626c653a2063616c6c6572206973206e6f7420746865206f776e657281525060200191505060405180910390fd5b60008114156200063a57600382111562000639576040517f08c379a0000000000000000000000000000000000000000000000000000000008152600401808060200182810382526023815260200180620067df6023913960400191505060405180910390fd5b5b7f9cfcb5349a9885d195ad78dbadde78894da162c8f5b7ca005bfefce437fd161060096000015460096001015484846040518085815260200184815260200183815260200182815260200194505050505060405180910390a16040518060400160405280838152602001620006ba83620008ae60201b620049361760201c565b815250600960008201518160000155602082015181600101559050505050565b620006ec82826200094460201b60201c565b1562000760576040517f08c379a000000000000000000000000000000000000000000000000000000000815260040180806020018281038252601f8152602001807f526f6c65733a206163636f756e7420616c72656164792068617320726f6c650081525060200191505060405180910390fd5b60018260000160008373ffffffffffffffffffffffffffffffffffffffff1673ffffffffffffffffffffffffffffffffffffffff16815260200190815260200160002060006101000a81548160ff0219169083151502179055505050565b6000808284019050838110156200083d576040517f08c379a000000000000000000000000000000000000000000000000000000000815260040180806020018281038252601b8152602001807f536166654d6174683a206164646974696f6e206f766572666c6f77000000000081525060200191505060405180910390fd5b8091505092915050565b6000600760019054906101000a900473ffffffffffffffffffffffffffffffffffffffff1673ffffffffffffffffffffffffffffffffffffffff16620008926200031d60201b60201c565b73ffffffffffffffffffffffffffffffffffffffff1614905090565b6000808210158015620008c2575060028211155b62000919576040517f08c379a0000000000000000000000000000000000000000000000000000000008152600401808060200182810382526028815260200180620067b76028913960400191505060405180910390fd5b6000606490506200093c83600a0a8262000a2460201b620050df1790919060201c565b915050919050565b60008073ffffffffffffffffffffffffffffffffffffffff168273ffffffffffffffffffffffffffffffffffffffff161415620009cd576040517f08c379a0000000000000000000000000000000000000000000000000000000008152600401808060200182810382526022815260200180620067956022913960400191505060405180910390fd5b8260000160008373ffffffffffffffffffffffffffffffffffffffff1673ffffffffffffffffffffffffffffffffffffffff16815260200190815260200160002060009054906101000a900460ff16905092915050565b60008083141562000a39576000905062000aa9565b600082840290508284828162000a4b57fe5b041462000aa4576040517f08c379a0000000000000000000000000000000000000000000000000000000008152600401808060200182810382526021815260200180620067746021913960400191505060405180910390fd5b809150505b92915050565b828054600181600116156101000203166002900490600052602060002090601f016020900481019282601f1062000af257805160ff191683800117855562000b23565b8280016001018555821562000b23579182015b8281111562000b2257825182559160200191906001019062000b05565b5b50905062000b32919062000b36565b5090565b62000b5b91905b8082111562000b5757600081600090555060010162000b3d565b5090565b90565b615c068062000b6e6000396000f3fe608060405234801561001057600080fd5b50600436106103ba5760003560e01c806379a59d1f116101f4578063ad863faa1161011a578063dd62ed3e116100ad578063eec1e6601161007c578063eec1e660146113a4578063ef037b90146113ae578063f2fde38b14611411578063fcaf7cf114611455576103ba565b8063dd62ed3e14611282578063e5c42fd1146112fa578063ea2f0b371461133e578063ead183ae14611382576103ba565b8063c1150bc7116100e9578063c1150bc7146111cc578063c885bc5814611216578063cf390ede14611220578063d82e39621461122a576103ba565b8063ad863faa146110fc578063aed4ade314611146578063b7b6d95914611190578063bf9befb1146111ae576103ba565b806392f629a411610192578063a457c2d711610161578063a457c2d714610f9c578063a75b54c414611002578063a9059cbb1461104c578063ad5e03de146110b2576103ba565b806392f629a414610ea357806395d89b4114610ec55780639c91b77914610f485780639c980bb614610f52576103ba565b80638456cb59116101ce5780638456cb5914610df55780638da5cb5b14610dff5780638f32d59b14610e495780639036ed4d14610e6b576103ba565b806379a59d1f14610d1957806379cc679014610d6357806382dc1ec414610db1576103ba565b80633f4ba83a116102e45780635c975abb116102775780636ef8d66d116102465780636ef8d66d14610ca35780636f4a2cd014610cad57806370a0823114610cb7578063715018a614610d0f576103ba565b80635c975abb14610ba357806363b98bed14610bc55780636688045614610c0f5780636da5311c14610c59576103ba565b806346fbf68e116102b357806346fbf68e146109885780634f4f7b4b146109e45780635342acb414610b295780635851c4a514610b85576103ba565b80633f4ba83a146108b457806342623360146108be57806342966c6814610916578063437823ec14610944576103ba565b80631d62ebd91161035c578063313ce5671161032b578063313ce56714610678578063332379891461069c57806339509351146108205780633ba3443f14610886576103ba565b80631d62ebd91461054e5780631f5f4da9146105a657806323b872dd146105d45780632ff2e9dc1461065a576103ba565b80630f2af89a116103985780630f2af89a146104c6578063174f0d4f146104e457806318160ddd146105025780631bf6ddae14610520576103ba565b806306fdde03146103bf578063095ea7b3146104425780630e15561a146104a8575b600080fd5b6103c7611473565b6040518080602001828103825283818151815260200191508051906020019080838360005b838110156104075780820151818401526020810190506103ec565b50505050905090810190601f1680156104345780820380516001836020036101000a031916815260200191505b509250505060405180910390f35b61048e6004803603604081101561045857600080fd5b81019080803573ffffffffffffffffffffffffffffffffffffffff16906020019092919080359060200190929190505050611515565b604051808215151515815260200191505060405180910390f35b6104b06115ac565b6040518082815260200191505060405180910390f35b6104ce611664565b6040518082815260200191505060405180910390f35b6104ec611671565b6040518082815260200191505060405180910390f35b61050a61167e565b6040518082815260200191505060405180910390f35b61054c6004803603602081101561053657600080fd5b8101908080359060200190929190505050611688565b005b6105906004803603602081101561056457600080fd5b81019080803573ffffffffffffffffffffffffffffffffffffffff16906020019092919050505061177c565b6040518082815260200191505060405180910390f35b6105d2600480360360208110156105bc57600080fd5b81019080803590602001909291905050506117c5565b005b610640600480360360608110156105ea57600080fd5b81019080803573ffffffffffffffffffffffffffffffffffffffff169060200190929190803573ffffffffffffffffffffffffffffffffffffffff16906020019092919080359060200190929190505050611849565b604051808215151515815260200191505060405180910390f35b610662611c73565b6040518082815260200191505060405180910390f35b610680611c83565b604051808260ff1660ff16815260200191505060405180910390f35b610806600480360360608110156106b257600080fd5b81019080803590602001906401000000008111156106cf57600080fd5b8201836020820111156106e157600080fd5b8035906020019184602083028401116401000000008311171561070357600080fd5b919080806020026020016040519081016040528093929190818152602001838360200280828437600081840152601f19601f8201169050808301925050505050505091929192908035906020019064010000000081111561076357600080fd5b82018360208201111561077557600080fd5b8035906020019184602083028401116401000000008311171561079757600080fd5b919080806020026020016040519081016040528093929190818152602001838360200280828437600081840152601f19601f820116905080830192505050505050509192919290803573ffffffffffffffffffffffffffffffffffffffff169060200190929190505050611c9a565b604051808215151515815260200191505060405180910390f35b61086c6004803603604081101561083657600080fd5b81019080803573ffffffffffffffffffffffffffffffffffffffff169060200190929190803590602001909291905050506120ba565b604051808215151515815260200191505060405180910390f35b6108b26004803603602081101561089c57600080fd5b8101908080359060200190929190505050612151565b005b6108bc6121d5565b005b610900600480360360208110156108d457600080fd5b81019080803573ffffffffffffffffffffffffffffffffffffffff169060200190929190505050612343565b6040518082815260200191505060405180910390f35b6109426004803603602081101561092c57600080fd5b810190808035906020019092919050505061238c565b005b6109866004803603602081101561095a57600080fd5b81019080803573ffffffffffffffffffffffffffffffffffffffff1690602001909291905050506123a0565b005b6109ca6004803603602081101561099e57600080fd5b81019080803573ffffffffffffffffffffffffffffffffffffffff169060200190929190505050612475565b604051808215151515815260200191505060405180910390f35b610b2760048036036101208110156109fb57600080fd5b81019080803573ffffffffffffffffffffffffffffffffffffffff169060200190929190803573ffffffffffffffffffffffffffffffffffffffff169060200190929190803573ffffffffffffffffffffffffffffffffffffffff169060200190929190803573ffffffffffffffffffffffffffffffffffffffff169060200190929190803573ffffffffffffffffffffffffffffffffffffffff169060200190929190803573ffffffffffffffffffffffffffffffffffffffff169060200190929190803573ffffffffffffffffffffffffffffffffffffffff169060200190929190803573ffffffffffffffffffffffffffffffffffffffff169060200190929190803573ffffffffffffffffffffffffffffffffffffffff169060200190929190505050612492565b005b610b6b60048036036020811015610b3f57600080fd5b81019080803573ffffffffffffffffffffffffffffffffffffffff1690602001909291905050506129fc565b604051808215151515815260200191505060405180910390f35b610b8d612a52565b6040518082815260200191505060405180910390f35b610bab612a58565b604051808215151515815260200191505060405180910390f35b610bcd612a6f565b604051808273ffffffffffffffffffffffffffffffffffffffff1673ffffffffffffffffffffffffffffffffffffffff16815260200191505060405180910390f35b610c17612a95565b604051808273ffffffffffffffffffffffffffffffffffffffff1673ffffffffffffffffffffffffffffffffffffffff16815260200191505060405180910390f35b610c61612abb565b604051808273ffffffffffffffffffffffffffffffffffffffff1673ffffffffffffffffffffffffffffffffffffffff16815260200191505060405180910390f35b610cab612ae1565b005b610cb5612af3565b005b610cf960048036036020811015610ccd57600080fd5b81019080803573ffffffffffffffffffffffffffffffffffffffff169060200190929190505050612c6e565b6040518082815260200191505060405180910390f35b610d17612cb6565b005b610d21612df1565b604051808273ffffffffffffffffffffffffffffffffffffffff1673ffffffffffffffffffffffffffffffffffffffff16815260200191505060405180910390f35b610daf60048036036040811015610d7957600080fd5b81019080803573ffffffffffffffffffffffffffffffffffffffff16906020019092919080359060200190929190505050612e17565b005b610df360048036036020811015610dc757600080fd5b81019080803573ffffffffffffffffffffffffffffffffffffffff169060200190929190505050612e25565b005b610dfd612e96565b005b610e07613005565b604051808273ffffffffffffffffffffffffffffffffffffffff1673ffffffffffffffffffffffffffffffffffffffff16815260200191505060405180910390f35b610e5161302f565b604051808215151515815260200191505060405180910390f35b610ea160048036036040811015610e8157600080fd5b81019080803590602001909291908035906020019092919050505061308e565b005b610eab6131ff565b604051808215151515815260200191505060405180910390f35b610ecd613212565b6040518080602001828103825283818151815260200191508051906020019080838360005b83811015610f0d578082015181840152602081019050610ef2565b50505050905090810190601f168015610f3a5780820380516001836020036101000a031916815260200191505b509250505060405180910390f35b610f506132b4565b005b610f5a613396565b604051808273ffffffffffffffffffffffffffffffffffffffff1673ffffffffffffffffffffffffffffffffffffffff16815260200191505060405180910390f35b610fe860048036036040811015610fb257600080fd5b81019080803573ffffffffffffffffffffffffffffffffffffffff169060200190929190803590602001909291905050506133bc565b604051808215151515815260200191505060405180910390f35b61100a613453565b604051808273ffffffffffffffffffffffffffffffffffffffff1673ffffffffffffffffffffffffffffffffffffffff16815260200191505060405180910390f35b6110986004803603604081101561106257600080fd5b81019080803573ffffffffffffffffffffffffffffffffffffffff16906020019092919080359060200190929190505050613479565b604051808215151515815260200191505060405180910390f35b6110ba613511565b604051808273ffffffffffffffffffffffffffffffffffffffff1673ffffffffffffffffffffffffffffffffffffffff16815260200191505060405180910390f35b611104613537565b604051808273ffffffffffffffffffffffffffffffffffffffff1673ffffffffffffffffffffffffffffffffffffffff16815260200191505060405180910390f35b61114e61355d565b604051808273ffffffffffffffffffffffffffffffffffffffff1673ffffffffffffffffffffffffffffffffffffffff16815260200191505060405180910390f35b611198613583565b6040518082815260200191505060405180910390f35b6111b6613589565b6040518082815260200191505060405180910390f35b6111d4613641565b604051808273ffffffffffffffffffffffffffffffffffffffff1673ffffffffffffffffffffffffffffffffffffffff16815260200191505060405180910390f35b61121e61366b565b005b611228613724565b005b61126c6004803603602081101561124057600080fd5b81019080803573ffffffffffffffffffffffffffffffffffffffff1690602001909291905050506137bb565b6040518082815260200191505060405180910390f35b6112e46004803603604081101561129857600080fd5b81019080803573ffffffffffffffffffffffffffffffffffffffff169060200190929190803573ffffffffffffffffffffffffffffffffffffffff169060200190929190505050613827565b6040518082815260200191505060405180910390f35b61133c6004803603602081101561131057600080fd5b81019080803573ffffffffffffffffffffffffffffffffffffffff1690602001909291905050506138ae565b005b6113806004803603602081101561135457600080fd5b81019080803573ffffffffffffffffffffffffffffffffffffffff16906020019092919050505061392c565b005b61138a613a01565b604051808215151515815260200191505060405180910390f35b6113ac613a14565b005b6113f0600480360360208110156113c457600080fd5b81019080803573ffffffffffffffffffffffffffffffffffffffff169060200190929190505050613aab565b60405180831515151581526020018281526020019250505060405180910390f35b6114536004803603602081101561142757600080fd5b81019080803573ffffffffffffffffffffffffffffffffffffffff169060200190929190505050613b55565b005b61145d613bdb565b6040518082815260200191505060405180910390f35b606060058054600181600116156101000203166002900480601f01602080910402602001604051908101604052809291908181526020018280546001816001161561010002031660029004801561150b5780601f106114e05761010080835404028352916020019161150b565b820191906000526020600020905b8154815290600101906020018083116114ee57829003601f168201915b5050505050905090565b6000600460009054906101000a900460ff161561159a576040517f08c379a00000000000000000000000000000000000000000000000000000000081526004018080602001828103825260108152602001807f5061757361626c653a207061757365640000000000000000000000000000000081525060200191505060405180910390fd5b6115a48383613be1565b905092915050565b6000806000905060008090505b60198054905081101561165c5761164f601b6000601984815481106115da57fe5b9060005260206000200160009054906101000a900473ffffffffffffffffffffffffffffffffffffffff1673ffffffffffffffffffffffffffffffffffffffff1673ffffffffffffffffffffffffffffffffffffffff1681526020019081526020016000205483613bff90919063ffffffff16565b91506001810190506115b9565b508091505090565b6000600960000154905090565b6000600960010154905090565b6000600254905090565b6116923382613c87565b6000601a60003373ffffffffffffffffffffffffffffffffffffffff1673ffffffffffffffffffffffffffffffffffffffff1681526020019081526020016000205414156116e4576116e3336138ae565b5b61173681601a60003373ffffffffffffffffffffffffffffffffffffffff1673ffffffffffffffffffffffffffffffffffffffff16815260200190815260200160002054613bff90919063ffffffff16565b601a60003373ffffffffffffffffffffffffffffffffffffffff1673ffffffffffffffffffffffffffffffffffffffff1681526020019081526020016000208190555050565b6000601b60008373ffffffffffffffffffffffffffffffffffffffff1673ffffffffffffffffffffffffffffffffffffffff168152602001908152602001600020549050919050565b6117cd61302f565b61183f576040517f08c379a00000000000000000000000000000000000000000000000000000000081526004018080602001828103825260208152602001807f4f776e61626c653a2063616c6c6572206973206e6f7420746865206f776e657281525060200191505060405180910390fd5b8060188190555050565b6000600460009054906101000a900460ff16156118ce576040517f08c379a00000000000000000000000000000000000000000000000000000000081526004018080602001828103825260108152602001807f5061757361626c653a207061757365640000000000000000000000000000000081525060200191505060405180910390fd5b600c60009054906101000a900473ffffffffffffffffffffffffffffffffffffffff1673ffffffffffffffffffffffffffffffffffffffff168473ffffffffffffffffffffffffffffffffffffffff16141561198557629e340060155401421015611984576040517f08c379a000000000000000000000000000000000000000000000000000000000815260040180806020018281038252602b815260200180615b5f602b913960400191505060405180910390fd5b5b600d60009054906101000a900473ffffffffffffffffffffffffffffffffffffffff1673ffffffffffffffffffffffffffffffffffffffff168473ffffffffffffffffffffffffffffffffffffffff161415611a595762ed4e0060155401421015611a58576040517f08c379a000000000000000000000000000000000000000000000000000000000815260040180806020018281038252601c8152602001807f5465616d20626c6f636b656420666f722036206d6f6e7468732e2e2e0000000081525060200191505060405180910390fd5b5b600e60009054906101000a900473ffffffffffffffffffffffffffffffffffffffff1673ffffffffffffffffffffffffffffffffffffffff168473ffffffffffffffffffffffffffffffffffffffff161415611b11576301e1338060155401421015611b10576040517f08c379a000000000000000000000000000000000000000000000000000000000815260040180806020018281038252602181526020018061595e6021913960400191505060405180910390fd5b5b611b19613641565b73ffffffffffffffffffffffffffffffffffffffff168473ffffffffffffffffffffffffffffffffffffffff161480611b845750611b55613641565b73ffffffffffffffffffffffffffffffffffffffff168373ffffffffffffffffffffffffffffffffffffffff16145b15611b9e57611b94848484613e3f565b5060019050611c6c565b6000611ba983613ed8565b905060001515600b60008773ffffffffffffffffffffffffffffffffffffffff1673ffffffffffffffffffffffffffffffffffffffff16815260200190815260200160002060009054906101000a900460ff1615151415611c5a57601760019054906101000a900460ff1615611c46576000611c2482613ef6565b9050611c2f81613f2c565b611c42818361402090919063ffffffff16565b9150505b611c5885611c52613641565b83613e3f565b505b611c65858585613e3f565b5060019150505b9392505050565b6b033b2e3c9fd0803ce800000081565b6000600760009054906101000a900460ff16905090565b6000600460009054906101000a900460ff1615611d1f576040517f08c379a00000000000000000000000000000000000000000000000000000000081526004018080602001828103825260108152602001807f5061757361626c653a207061757365640000000000000000000000000000000081525060200191505060405180910390fd5b600c60009054906101000a900473ffffffffffffffffffffffffffffffffffffffff1673ffffffffffffffffffffffffffffffffffffffff168273ffffffffffffffffffffffffffffffffffffffff161415611dd657629e340060155401421015611dd5576040517f08c379a000000000000000000000000000000000000000000000000000000000815260040180806020018281038252602b815260200180615b5f602b913960400191505060405180910390fd5b5b600d60009054906101000a900473ffffffffffffffffffffffffffffffffffffffff1673ffffffffffffffffffffffffffffffffffffffff168273ffffffffffffffffffffffffffffffffffffffff161415611eaa5762ed4e0060155401421015611ea9576040517f08c379a000000000000000000000000000000000000000000000000000000000815260040180806020018281038252601c8152602001807f5465616d20626c6f636b656420666f722036206d6f6e7468732e2e2e0000000081525060200191505060405180910390fd5b5b600e60009054906101000a900473ffffffffffffffffffffffffffffffffffffffff1673ffffffffffffffffffffffffffffffffffffffff168273ffffffffffffffffffffffffffffffffffffffff161415611f62576301e1338060155401421015611f61576040517f08c379a000000000000000000000000000000000000000000000000000000000815260040180806020018281038252602181526020018061595e6021913960400191505060405180910390fd5b5b60006064905060008551905081811115611fe4576040517f08c379a000000000000000000000000000000000000000000000000000000000815260040180806020018281038252601e8152602001807f4d6178207472616e73616374696f6e20636f756e742076696f6c61746564000081525060200191505060405180910390fd5b8451811461205a576040517f08c379a000000000000000000000000000000000000000000000000000000000815260040180806020018281038252600a8152602001807f57726f6e6720646174610000000000000000000000000000000000000000000081525060200191505060405180910390fd5b8373ffffffffffffffffffffffffffffffffffffffff163373ffffffffffffffffffffffffffffffffffffffff1614156120a25761209986868361406a565b925050506120b3565b6120ae86868684614308565b925050505b9392505050565b6000600460009054906101000a900460ff161561213f576040517f08c379a00000000000000000000000000000000000000000000000000000000081526004018080602001828103825260108152602001807f5061757361626c653a207061757365640000000000000000000000000000000081525060200191505060405180910390fd5b6121498383614364565b905092915050565b61215961302f565b6121cb576040517f08c379a00000000000000000000000000000000000000000000000000000000081526004018080602001828103825260208152602001807f4f776e61626c653a2063616c6c6572206973206e6f7420746865206f776e657281525060200191505060405180910390fd5b8060168190555050565b6121e56121e0614417565b612475565b61223a576040517f08c379a000000000000000000000000000000000000000000000000000000000815260040180806020018281038252603081526020018061597f6030913960400191505060405180910390fd5b600460009054906101000a900460ff166122bc576040517f08c379a00000000000000000000000000000000000000000000000000000000081526004018080602001828103825260148152602001807f5061757361626c653a206e6f742070617573656400000000000000000000000081525060200191505060405180910390fd5b6000600460006101000a81548160ff0219169083151502179055507f5db9ee0a495bf2e6ff9c91a7834c1ba4fdd244a5e8aa4e537bd38aeae4b073aa612300614417565b604051808273ffffffffffffffffffffffffffffffffffffffff1673ffffffffffffffffffffffffffffffffffffffff16815260200191505060405180910390a1565b6000601a60008373ffffffffffffffffffffffffffffffffffffffff1673ffffffffffffffffffffffffffffffffffffffff168152602001908152602001600020549050919050565b61239d612397614417565b82613c87565b50565b6123a861302f565b61241a576040517f08c379a00000000000000000000000000000000000000000000000000000000081526004018080602001828103825260208152602001807f4f776e61626c653a2063616c6c6572206973206e6f7420746865206f776e657281525060200191505060405180910390fd5b6001600b60008373ffffffffffffffffffffffffffffffffffffffff1673ffffffffffffffffffffffffffffffffffffffff16815260200190815260200160002060006101000a81548160ff02191690831515021790555050565b600061248b82600361441f90919063ffffffff16565b9050919050565b61249a61302f565b61250c576040517f08c379a00000000000000000000000000000000000000000000000000000000081526004018080602001828103825260208152602001807f4f776e61626c653a2063616c6c6572206973206e6f7420746865206f776e657281525060200191505060405180910390fd5b60001515601760009054906101000a900460ff16151514612595576040517f08c379a00000000000000000000000000000000000000000000000000000000081526004018080602001828103825260128152602001807f4578656375746564206f6e6c79206f6e6365000000000000000000000000000081525060200191505060405180910390fd5b88600c60006101000a81548173ffffffffffffffffffffffffffffffffffffffff021916908373ffffffffffffffffffffffffffffffffffffffff16021790555087600d60006101000a81548173ffffffffffffffffffffffffffffffffffffffff021916908373ffffffffffffffffffffffffffffffffffffffff16021790555086600e60006101000a81548173ffffffffffffffffffffffffffffffffffffffff021916908373ffffffffffffffffffffffffffffffffffffffff16021790555085600f60006101000a81548173ffffffffffffffffffffffffffffffffffffffff021916908373ffffffffffffffffffffffffffffffffffffffff16021790555084601060006101000a81548173ffffffffffffffffffffffffffffffffffffffff021916908373ffffffffffffffffffffffffffffffffffffffff16021790555083601160006101000a81548173ffffffffffffffffffffffffffffffffffffffff021916908373ffffffffffffffffffffffffffffffffffffffff16021790555082601260006101000a81548173ffffffffffffffffffffffffffffffffffffffff021916908373ffffffffffffffffffffffffffffffffffffffff16021790555081601360006101000a81548173ffffffffffffffffffffffffffffffffffffffff021916908373ffffffffffffffffffffffffffffffffffffffff16021790555080601460006101000a81548173ffffffffffffffffffffffffffffffffffffffff021916908373ffffffffffffffffffffffffffffffffffffffff16021790555061281633600c60009054906101000a900473ffffffffffffffffffffffffffffffffffffffff166a31a17e847807b1bc0000006144fd565b61284e33600d60009054906101000a900473ffffffffffffffffffffffffffffffffffffffff166a7c13bc4b2c133c560000006144fd565b61288633600e60009054906101000a900473ffffffffffffffffffffffffffffffffffffffff166a7c13bc4b2c133c560000006144fd565b6128be33600f60009054906101000a900473ffffffffffffffffffffffffffffffffffffffff166a5afd67f2dc0e1b2e0000006144fd565b6128f633601060009054906101000a900473ffffffffffffffffffffffffffffffffffffffff166aa56fa5b99019a5c80000006144fd565b61292e33601160009054906101000a900473ffffffffffffffffffffffffffffffffffffffff166a6b88921f0410abc20000006144fd565b61296633601260009054906101000a900473ffffffffffffffffffffffffffffffffffffffff166a6342fd08f00f63780000006144fd565b61299e33601360009054906101000a900473ffffffffffffffffffffffffffffffffffffffff166a39e7139a8c08fa060000006144fd565b6129d633601460009054906101000a900473ffffffffffffffffffffffffffffffffffffffff166a084595161401484a0000006144fd565b6001601760006101000a81548160ff021916908315150217905550505050505050505050565b6000600b60008373ffffffffffffffffffffffffffffffffffffffff1673ffffffffffffffffffffffffffffffffffffffff16815260200190815260200160002060009054906101000a900460ff169050919050565b60165481565b6000600460009054906101000a900460ff16905090565b601060009054906101000a900473ffffffffffffffffffffffffffffffffffffffff1681565b601360009054906101000a900473ffffffffffffffffffffffffffffffffffffffff1681565b600d60009054906101000a900473ffffffffffffffffffffffffffffffffffffffff1681565b612af1612aec614417565b6147b3565b565b612afb61302f565b612b6d576040517f08c379a00000000000000000000000000000000000000000000000000000000081526004018080602001828103825260208152602001807f4f776e61626c653a2063616c6c6572206973206e6f7420746865206f776e657281525060200191505060405180910390fd5b60008090505b601980549050811015612c6b57600060198281548110612b8f57fe5b9060005260206000200160009054906101000a900473ffffffffffffffffffffffffffffffffffffffff1690506000612bc7826137bb565b9050612c1b81601b60008573ffffffffffffffffffffffffffffffffffffffff1673ffffffffffffffffffffffffffffffffffffffff16815260200190815260200160002054613bff90919063ffffffff16565b601b60008473ffffffffffffffffffffffffffffffffffffffff1673ffffffffffffffffffffffffffffffffffffffff168152602001908152602001600020819055505050600181019050612b73565b50565b60008060008373ffffffffffffffffffffffffffffffffffffffff1673ffffffffffffffffffffffffffffffffffffffff168152602001908152602001600020549050919050565b612cbe61302f565b612d30576040517f08c379a00000000000000000000000000000000000000000000000000000000081526004018080602001828103825260208152602001807f4f776e61626c653a2063616c6c6572206973206e6f7420746865206f776e657281525060200191505060405180910390fd5b600073ffffffffffffffffffffffffffffffffffffffff16600760019054906101000a900473ffffffffffffffffffffffffffffffffffffffff1673ffffffffffffffffffffffffffffffffffffffff167f8be0079c531659141344cd1fd0a4f28419497f9722a3daafe3b4186f6b6457e060405160405180910390a36000600760016101000a81548173ffffffffffffffffffffffffffffffffffffffff021916908373ffffffffffffffffffffffffffffffffffffffff160217905550565b600e60009054906101000a900473ffffffffffffffffffffffffffffffffffffffff1681565b612e21828261480d565b5050565b612e35612e30614417565b612475565b612e8a576040517f08c379a000000000000000000000000000000000000000000000000000000000815260040180806020018281038252603081526020018061597f6030913960400191505060405180910390fd5b612e93816148dc565b50565b612ea6612ea1614417565b612475565b612efb576040517f08c379a000000000000000000000000000000000000000000000000000000000815260040180806020018281038252603081526020018061597f6030913960400191505060405180910390fd5b600460009054906101000a900460ff1615612f7e576040517f08c379a00000000000000000000000000000000000000000000000000000000081526004018080602001828103825260108152602001807f5061757361626c653a207061757365640000000000000000000000000000000081525060200191505060405180910390fd5b6001600460006101000a81548160ff0219169083151502179055507f62e78cea01bee320cd4e420270b5ea74000d11b0c9f74754ebdbfc544b05a258612fc2614417565b604051808273ffffffffffffffffffffffffffffffffffffffff1673ffffffffffffffffffffffffffffffffffffffff16815260200191505060405180910390a1565b6000600760019054906101000a900473ffffffffffffffffffffffffffffffffffffffff16905090565b6000600760019054906101000a900473ffffffffffffffffffffffffffffffffffffffff1673ffffffffffffffffffffffffffffffffffffffff16613072614417565b73ffffffffffffffffffffffffffffffffffffffff1614905090565b61309661302f565b613108576040517f08c379a00000000000000000000000000000000000000000000000000000000081526004018080602001828103825260208152602001807f4f776e61626c653a2063616c6c6572206973206e6f7420746865206f776e657281525060200191505060405180910390fd5b600081141561316c57600382111561316b576040517f08c379a0000000000000000000000000000000000000000000000000000000008152600401808060200182810382526023815260200180615b8a6023913960400191505060405180910390fd5b5b7f9cfcb5349a9885d195ad78dbadde78894da162c8f5b7ca005bfefce437fd161060096000015460096001015484846040518085815260200184815260200183815260200182815260200194505050505060405180910390a160405180604001604052808381526020016131df83614936565b815250600960008201518160000155602082015181600101559050505050565b601760019054906101000a900460ff1681565b606060068054600181600116156101000203166002900480601f0160208091040260200160405190810160405280929190818152602001828054600181600116156101000203166002900480156132aa5780601f1061327f576101008083540402835291602001916132aa565b820191906000526020600020905b81548152906001019060200180831161328d57829003601f168201915b5050505050905090565b6000601a60003373ffffffffffffffffffffffffffffffffffffffff1673ffffffffffffffffffffffffffffffffffffffff16815260200190815260200160002054111561339457613305336149c2565b61334e33601a60003373ffffffffffffffffffffffffffffffffffffffff1673ffffffffffffffffffffffffffffffffffffffff16815260200190815260200160002054614ab3565b6000601a60003373ffffffffffffffffffffffffffffffffffffffff1673ffffffffffffffffffffffffffffffffffffffff168152602001908152602001600020819055505b565b600c60009054906101000a900473ffffffffffffffffffffffffffffffffffffffff1681565b6000600460009054906101000a900460ff1615613441576040517f08c379a00000000000000000000000000000000000000000000000000000000081526004018080602001828103825260108152602001807f5061757361626c653a207061757365640000000000000000000000000000000081525060200191505060405180910390fd5b61344b8383614c6e565b905092915050565b601160009054906101000a900473ffffffffffffffffffffffffffffffffffffffff1681565b6000600460009054906101000a900460ff16156134fe576040517f08c379a00000000000000000000000000000000000000000000000000000000081526004018080602001828103825260108152602001807f5061757361626c653a207061757365640000000000000000000000000000000081525060200191505060405180910390fd5b613509338484614d3b565b905092915050565b600f60009054906101000a900473ffffffffffffffffffffffffffffffffffffffff1681565b601260009054906101000a900473ffffffffffffffffffffffffffffffffffffffff1681565b601460009054906101000a900473ffffffffffffffffffffffffffffffffffffffff1681565b60155481565b6000806000905060008090505b6019805490508110156136395761362c601a6000601984815481106135b757fe5b9060005260206000200160009054906101000a900473ffffffffffffffffffffffffffffffffffffffff1673ffffffffffffffffffffffffffffffffffffffff1673ffffffffffffffffffffffffffffffffffffffff1681526020019081526020016000205483613bff90919063ffffffff16565b9150600181019050613596565b508091505090565b6000600860009054906101000a900473ffffffffffffffffffffffffffffffffffffffff16905090565b6000601b60003373ffffffffffffffffffffffffffffffffffffffff1673ffffffffffffffffffffffffffffffffffffffff1681526020019081526020016000205490506000601b60003373ffffffffffffffffffffffffffffffffffffffff1673ffffffffffffffffffffffffffffffffffffffff16815260200190815260200160002081905550613721601360009054906101000a900473ffffffffffffffffffffffffffffffffffffffff1633836144fd565b50565b61372c61302f565b61379e576040517f08c379a00000000000000000000000000000000000000000000000000000000081526004018080602001828103825260208152602001807f4f776e61626c653a2063616c6c6572206973206e6f7420746865206f776e657281525060200191505060405180910390fd5b6001601760016101000a81548160ff021916908315150217905550565b600080613812601854601a60008673ffffffffffffffffffffffffffffffffffffffff1673ffffffffffffffffffffffffffffffffffffffff168152602001908152602001600020546150df90919063ffffffff16565b90506064818161381e57fe5b04915050919050565b6000600160008473ffffffffffffffffffffffffffffffffffffffff1673ffffffffffffffffffffffffffffffffffffffff16815260200190815260200160002060008373ffffffffffffffffffffffffffffffffffffffff1673ffffffffffffffffffffffffffffffffffffffff16815260200190815260200160002054905092915050565b60006138b982613aab565b509050806139285760198290806001815401808255809150509060018203906000526020600020016000909192909190916101000a81548173ffffffffffffffffffffffffffffffffffffffff021916908373ffffffffffffffffffffffffffffffffffffffff160217905550505b5050565b61393461302f565b6139a6576040517f08c379a00000000000000000000000000000000000000000000000000000000081526004018080602001828103825260208152602001807f4f776e61626c653a2063616c6c6572206973206e6f7420746865206f776e657281525060200191505060405180910390fd5b6000600b60008373ffffffffffffffffffffffffffffffffffffffff1673ffffffffffffffffffffffffffffffffffffffff16815260200190815260200160002060006101000a81548160ff02191690831515021790555050565b601760009054906101000a900460ff1681565b613a1c61302f565b613a8e576040517f08c379a00000000000000000000000000000000000000000000000000000000081526004018080602001828103825260208152602001807f4f776e61626c653a2063616c6c6572206973206e6f7420746865206f776e657281525060200191505060405180910390fd5b6000601760016101000a81548160ff021916908315150217905550565b60008060008090505b601980549050811015613b445760198181548110613ace57fe5b9060005260206000200160009054906101000a900473ffffffffffffffffffffffffffffffffffffffff1673ffffffffffffffffffffffffffffffffffffffff168473ffffffffffffffffffffffffffffffffffffffff161415613b39576001819250925050613b50565b600181019050613ab4565b50600080809050915091505b915091565b613b5d61302f565b613bcf576040517f08c379a00000000000000000000000000000000000000000000000000000000081526004018080602001828103825260208152602001807f4f776e61626c653a2063616c6c6572206973206e6f7420746865206f776e657281525060200191505060405180910390fd5b613bd881615165565b50565b60185481565b6000613bf5613bee614417565b84846152ab565b6001905092915050565b600080828401905083811015613c7d576040517f08c379a000000000000000000000000000000000000000000000000000000000815260040180806020018281038252601b8152602001807f536166654d6174683a206164646974696f6e206f766572666c6f77000000000081525060200191505060405180910390fd5b8091505092915050565b600073ffffffffffffffffffffffffffffffffffffffff168273ffffffffffffffffffffffffffffffffffffffff161415613d0d576040517f08c379a0000000000000000000000000000000000000000000000000000000008152600401808060200182810382526021815260200180615acd6021913960400191505060405180910390fd5b613d788160405180606001604052806022815260200161593c602291396000808673ffffffffffffffffffffffffffffffffffffffff1673ffffffffffffffffffffffffffffffffffffffff168152602001908152602001600020546154a29092919063ffffffff16565b6000808473ffffffffffffffffffffffffffffffffffffffff1673ffffffffffffffffffffffffffffffffffffffff16815260200190815260200160002081905550613dcf8160025461402090919063ffffffff16565b600281905550600073ffffffffffffffffffffffffffffffffffffffff168273ffffffffffffffffffffffffffffffffffffffff167fddf252ad1be2c89b69c2b068fc378daa952ba7f163c4a11628f55a4df523b3ef836040518082815260200191505060405180910390a35050565b6000600460009054906101000a900460ff1615613ec4576040517f08c379a00000000000000000000000000000000000000000000000000000000081526004018080602001828103825260108152602001807f5061757361626c653a207061757365640000000000000000000000000000000081525060200191505060405180910390fd5b613ecf848484615562565b90509392505050565b6000613eef6009600001546009600101548461563b565b9050919050565b600080613f0e601654846150df90919063ffffffff16565b9050613f2460648261567090919063ffffffff16565b915050919050565b613f363382613c87565b6000601a60003373ffffffffffffffffffffffffffffffffffffffff1673ffffffffffffffffffffffffffffffffffffffff168152602001908152602001600020541415613f8857613f87336138ae565b5b613fda81601a60003373ffffffffffffffffffffffffffffffffffffffff1673ffffffffffffffffffffffffffffffffffffffff16815260200190815260200160002054613bff90919063ffffffff16565b601a60003373ffffffffffffffffffffffffffffffffffffffff1673ffffffffffffffffffffffffffffffffffffffff1681526020019081526020016000208190555050565b600061406283836040518060400160405280601e81526020017f536166654d6174683a207375627472616374696f6e206f766572666c6f7700008152506154a2565b905092915050565b6000600c60009054906101000a900473ffffffffffffffffffffffffffffffffffffffff1673ffffffffffffffffffffffffffffffffffffffff163373ffffffffffffffffffffffffffffffffffffffff16141561412357629e340060155401421015614122576040517f08c379a000000000000000000000000000000000000000000000000000000000815260040180806020018281038252602b815260200180615b5f602b913960400191505060405180910390fd5b5b600d60009054906101000a900473ffffffffffffffffffffffffffffffffffffffff1673ffffffffffffffffffffffffffffffffffffffff163373ffffffffffffffffffffffffffffffffffffffff1614156141f75762ed4e00601554014210156141f6576040517f08c379a000000000000000000000000000000000000000000000000000000000815260040180806020018281038252601c8152602001807f5465616d20626c6f636b656420666f722036206d6f6e7468732e2e2e0000000081525060200191505060405180910390fd5b5b600e60009054906101000a900473ffffffffffffffffffffffffffffffffffffffff1673ffffffffffffffffffffffffffffffffffffffff163373ffffffffffffffffffffffffffffffffffffffff1614156142af576301e13380601554014210156142ae576040517f08c379a000000000000000000000000000000000000000000000000000000000815260040180806020018281038252602181526020018061595e6021913960400191505060405180910390fd5b5b60008090505b828110156142fc576142ee338683815181106142cd57fe5b60200260200101518684815181106142e157fe5b6020026020010151614d3b565b5080806001019150506142b5565b50600190509392505050565b600080600090505b82811015614357576143498487838151811061432857fe5b602002602001015187848151811061433c57fe5b6020026020010151611849565b508080600101915050614310565b5060019050949350505050565b600061440d614371614417565b846144088560016000614382614417565b73ffffffffffffffffffffffffffffffffffffffff1673ffffffffffffffffffffffffffffffffffffffff16815260200190815260200160002060008973ffffffffffffffffffffffffffffffffffffffff1673ffffffffffffffffffffffffffffffffffffffff16815260200190815260200160002054613bff90919063ffffffff16565b6152ab565b6001905092915050565b600033905090565b60008073ffffffffffffffffffffffffffffffffffffffff168273ffffffffffffffffffffffffffffffffffffffff1614156144a6576040517f08c379a0000000000000000000000000000000000000000000000000000000008152600401808060200182810382526022815260200180615a876022913960400191505060405180910390fd5b8260000160008373ffffffffffffffffffffffffffffffffffffffff1673ffffffffffffffffffffffffffffffffffffffff16815260200190815260200160002060009054906101000a900460ff16905092915050565b600073ffffffffffffffffffffffffffffffffffffffff168373ffffffffffffffffffffffffffffffffffffffff161415614583576040517f08c379a0000000000000000000000000000000000000000000000000000000008152600401808060200182810382526025815260200180615aee6025913960400191505060405180910390fd5b600073ffffffffffffffffffffffffffffffffffffffff168273ffffffffffffffffffffffffffffffffffffffff161415614609576040517f08c379a00000000000000000000000000000000000000000000000000000000081526004018080602001828103825260238152602001806159196023913960400191505060405180910390fd5b614674816040518060600160405280602681526020016159f7602691396000808773ffffffffffffffffffffffffffffffffffffffff1673ffffffffffffffffffffffffffffffffffffffff168152602001908152602001600020546154a29092919063ffffffff16565b6000808573ffffffffffffffffffffffffffffffffffffffff1673ffffffffffffffffffffffffffffffffffffffff16815260200190815260200160002081905550614707816000808573ffffffffffffffffffffffffffffffffffffffff1673ffffffffffffffffffffffffffffffffffffffff16815260200190815260200160002054613bff90919063ffffffff16565b6000808473ffffffffffffffffffffffffffffffffffffffff1673ffffffffffffffffffffffffffffffffffffffff168152602001908152602001600020819055508173ffffffffffffffffffffffffffffffffffffffff168373ffffffffffffffffffffffffffffffffffffffff167fddf252ad1be2c89b69c2b068fc378daa952ba7f163c4a11628f55a4df523b3ef836040518082815260200191505060405180910390a3505050565b6147c78160036156ba90919063ffffffff16565b8073ffffffffffffffffffffffffffffffffffffffff167fcd265ebaf09df2871cc7bd4133404a235ba12eff2041bb89d9c714a2621c7c7e60405160405180910390a250565b6148178282613c87565b6148d882614823614417565b6148d384604051806060016040528060248152602001615aa960249139600160008973ffffffffffffffffffffffffffffffffffffffff1673ffffffffffffffffffffffffffffffffffffffff1681526020019081526020016000206000614889614417565b73ffffffffffffffffffffffffffffffffffffffff1673ffffffffffffffffffffffffffffffffffffffff168152602001908152602001600020546154a29092919063ffffffff16565b6152ab565b5050565b6148f081600361577790919063ffffffff16565b8073ffffffffffffffffffffffffffffffffffffffff167f6719d08c1888103bea251a4ed56406bd0c3e69723c8a1686e017e7bbe159b6f860405160405180910390a250565b6000808210158015614949575060028211155b61499e576040517f08c379a0000000000000000000000000000000000000000000000000000000008152600401808060200182810382526028815260200180615b136028913960400191505060405180910390fd5b6000606490506149ba83600a0a826150df90919063ffffffff16565b915050919050565b6000806149ce83613aab565b915091508115614aae576019600160198054905003815481106149ed57fe5b9060005260206000200160009054906101000a900473ffffffffffffffffffffffffffffffffffffffff1660198281548110614a2557fe5b9060005260206000200160006101000a81548173ffffffffffffffffffffffffffffffffffffffff021916908373ffffffffffffffffffffffffffffffffffffffff1602179055506019805480614a7857fe5b6001900381819060005260206000200160006101000a81549073ffffffffffffffffffffffffffffffffffffffff021916905590555b505050565b600073ffffffffffffffffffffffffffffffffffffffff168273ffffffffffffffffffffffffffffffffffffffff161415614b56576040517f08c379a000000000000000000000000000000000000000000000000000000000815260040180806020018281038252601f8152602001807f45524332303a206d696e7420746f20746865207a65726f20616464726573730081525060200191505060405180910390fd5b614b6b81600254613bff90919063ffffffff16565b600281905550614bc2816000808573ffffffffffffffffffffffffffffffffffffffff1673ffffffffffffffffffffffffffffffffffffffff16815260200190815260200160002054613bff90919063ffffffff16565b6000808473ffffffffffffffffffffffffffffffffffffffff1673ffffffffffffffffffffffffffffffffffffffff168152602001908152602001600020819055508173ffffffffffffffffffffffffffffffffffffffff16600073ffffffffffffffffffffffffffffffffffffffff167fddf252ad1be2c89b69c2b068fc378daa952ba7f163c4a11628f55a4df523b3ef836040518082815260200191505060405180910390a35050565b6000614d31614c7b614417565b84614d2c85604051806060016040528060258152602001615bad6025913960016000614ca5614417565b73ffffffffffffffffffffffffffffffffffffffff1673ffffffffffffffffffffffffffffffffffffffff16815260200190815260200160002060008a73ffffffffffffffffffffffffffffffffffffffff1673ffffffffffffffffffffffffffffffffffffffff168152602001908152602001600020546154a29092919063ffffffff16565b6152ab565b6001905092915050565b6000600c60009054906101000a900473ffffffffffffffffffffffffffffffffffffffff1673ffffffffffffffffffffffffffffffffffffffff168473ffffffffffffffffffffffffffffffffffffffff161415614df457629e340060155401421015614df3576040517f08c379a000000000000000000000000000000000000000000000000000000000815260040180806020018281038252602b815260200180615b5f602b913960400191505060405180910390fd5b5b600d60009054906101000a900473ffffffffffffffffffffffffffffffffffffffff1673ffffffffffffffffffffffffffffffffffffffff168473ffffffffffffffffffffffffffffffffffffffff161415614ec85762ed4e0060155401421015614ec7576040517f08c379a000000000000000000000000000000000000000000000000000000000815260040180806020018281038252601c8152602001807f5465616d20626c6f636b656420666f722036206d6f6e7468732e2e2e0000000081525060200191505060405180910390fd5b5b600e60009054906101000a900473ffffffffffffffffffffffffffffffffffffffff1673ffffffffffffffffffffffffffffffffffffffff168473ffffffffffffffffffffffffffffffffffffffff161415614f80576301e1338060155401421015614f7f576040517f08c379a000000000000000000000000000000000000000000000000000000000815260040180806020018281038252602181526020018061595e6021913960400191505060405180910390fd5b5b614f88613641565b73ffffffffffffffffffffffffffffffffffffffff168473ffffffffffffffffffffffffffffffffffffffff161480614ff35750614fc4613641565b73ffffffffffffffffffffffffffffffffffffffff168373ffffffffffffffffffffffffffffffffffffffff16145b1561500c576150038484846144fd565b600190506150d8565b60001515600b60003373ffffffffffffffffffffffffffffffffffffffff1673ffffffffffffffffffffffffffffffffffffffff16815260200190815260200160002060009054906101000a900460ff16151514156150c857600061507083613ed8565b9050601760019054906101000a900460ff16156150b457600061509282613ef6565b905061509d81613f2c565b6150b0818361402090919063ffffffff16565b9150505b6150c6856150c0613641565b836144fd565b505b6150d38484846144fd565b600190505b9392505050565b6000808314156150f2576000905061515f565b600082840290508284828161510357fe5b041461515a576040517f08c379a0000000000000000000000000000000000000000000000000000000008152600401808060200182810382526021815260200180615a3e6021913960400191505060405180910390fd5b809150505b92915050565b600073ffffffffffffffffffffffffffffffffffffffff168173ffffffffffffffffffffffffffffffffffffffff1614156151eb576040517f08c379a00000000000000000000000000000000000000000000000000000000081526004018080602001828103825260268152602001806159af6026913960400191505060405180910390fd5b8073ffffffffffffffffffffffffffffffffffffffff16600760019054906101000a900473ffffffffffffffffffffffffffffffffffffffff1673ffffffffffffffffffffffffffffffffffffffff167f8be0079c531659141344cd1fd0a4f28419497f9722a3daafe3b4186f6b6457e060405160405180910390a380600760016101000a81548173ffffffffffffffffffffffffffffffffffffffff021916908373ffffffffffffffffffffffffffffffffffffffff16021790555050565b600073ffffffffffffffffffffffffffffffffffffffff168373ffffffffffffffffffffffffffffffffffffffff161415615331576040517f08c379a0000000000000000000000000000000000000000000000000000000008152600401808060200182810382526024815260200180615b3b6024913960400191505060405180910390fd5b600073ffffffffffffffffffffffffffffffffffffffff168273ffffffffffffffffffffffffffffffffffffffff1614156153b7576040517f08c379a00000000000000000000000000000000000000000000000000000000081526004018080602001828103825260228152602001806159d56022913960400191505060405180910390fd5b80600160008573ffffffffffffffffffffffffffffffffffffffff1673ffffffffffffffffffffffffffffffffffffffff16815260200190815260200160002060008473ffffffffffffffffffffffffffffffffffffffff1673ffffffffffffffffffffffffffffffffffffffff168152602001908152602001600020819055508173ffffffffffffffffffffffffffffffffffffffff168373ffffffffffffffffffffffffffffffffffffffff167f8c5be1e5ebec7d5bd14f71427d1e84f3dd0314c0f7b2291e5b200ac8c7c3b925836040518082815260200191505060405180910390a3505050565b600083831115829061554f576040517f08c379a00000000000000000000000000000000000000000000000000000000081526004018080602001828103825283818151815260200191508051906020019080838360005b838110156155145780820151818401526020810190506154f9565b50505050905090810190601f1680156155415780820380516001836020036101000a031916815260200191505b509250505060405180910390fd5b5060008385039050809150509392505050565b600061556f8484846144fd565b6156308461557b614417565b61562b85604051806060016040528060288152602001615a5f60289139600160008b73ffffffffffffffffffffffffffffffffffffffff1673ffffffffffffffffffffffffffffffffffffffff16815260200190815260200160002060006155e1614417565b73ffffffffffffffffffffffffffffffffffffffff1673ffffffffffffffffffffffffffffffffffffffff168152602001908152602001600020546154a29092919063ffffffff16565b6152ab565b600190509392505050565b60008061565185846150df90919063ffffffff16565b9050615666848261567090919063ffffffff16565b9150509392505050565b60006156b283836040518060400160405280601a81526020017f536166654d6174683a206469766973696f6e206279207a65726f000000000000815250615852565b905092915050565b6156c4828261441f565b615719576040517f08c379a0000000000000000000000000000000000000000000000000000000008152600401808060200182810382526021815260200180615a1d6021913960400191505060405180910390fd5b60008260000160008373ffffffffffffffffffffffffffffffffffffffff1673ffffffffffffffffffffffffffffffffffffffff16815260200190815260200160002060006101000a81548160ff0219169083151502179055505050565b615781828261441f565b156157f4576040517f08c379a000000000000000000000000000000000000000000000000000000000815260040180806020018281038252601f8152602001807f526f6c65733a206163636f756e7420616c72656164792068617320726f6c650081525060200191505060405180910390fd5b60018260000160008373ffffffffffffffffffffffffffffffffffffffff1673ffffffffffffffffffffffffffffffffffffffff16815260200190815260200160002060006101000a81548160ff0219169083151502179055505050565b600080831182906158fe576040517f08c379a00000000000000000000000000000000000000000000000000000000081526004018080602001828103825283818151815260200191508051906020019080838360005b838110156158c35780820151818401526020810190506158a8565b50505050905090810190601f1680156158f05780820380516001836020036101000a031916815260200191505b509250505060405180910390fd5b50600083858161590a57fe5b04905080915050939250505056fe45524332303a207472616e7366657220746f20746865207a65726f206164647265737345524332303a206275726e20616d6f756e7420657863656564732062616c616e6365466f756e6465727320626c6f636b656420666f72203132206d6f6e7468732e2e2e506175736572526f6c653a2063616c6c657220646f6573206e6f742068617665207468652050617573657220726f6c654f776e61626c653a206e6577206f776e657220697320746865207a65726f206164647265737345524332303a20617070726f766520746f20746865207a65726f206164647265737345524332303a207472616e7366657220616d6f756e7420657863656564732062616c616e6365526f6c65733a206163636f756e7420646f6573206e6f74206861766520726f6c65536166654d6174683a206d756c7469706c69636174696f6e206f766572666c6f7745524332303a207472616e7366657220616d6f756e74206578636565647320616c6c6f77616e6365526f6c65733a206163636f756e7420697320746865207a65726f206164647265737345524332303a206275726e20616d6f756e74206578636565647320616c6c6f77616e636545524332303a206275726e2066726f6d20746865207a65726f206164647265737345524332303a207472616e736665722066726f6d20746865207a65726f2061646472657373596f752063616e277420736574206d6f7265207468616e203220646563696d616c20706c6163657345524332303a20617070726f76652066726f6d20746865207a65726f20616464726573735072697661746520696e7665737469646f727320626c6f636b656420666f722034206d6f6e7468732e2e2e596f752063616e2774207365742061207461782067726561746572207468616e20332545524332303a2064656372656173656420616c6c6f77616e63652062656c6f77207a65726fa265627a7a723158206aabb6a18d18676a12b2ca8f3cddecab1d54d6e54a6f15232e88fee53e9a869d64736f6c63430005100032536166654d6174683a206d756c7469706c69636174696f6e206f766572666c6f77526f6c65733a206163636f756e7420697320746865207a65726f2061646472657373596f752063616e277420736574206d6f7265207468616e203220646563696d616c20706c61636573596f752063616e2774207365742061207461782067726561746572207468616e203325",
  "source": "pragma solidity 0.5.16;\n\nimport \"openzeppelin-solidity/contracts/token/ERC20/ERC20Pausable.sol\";\nimport \"openzeppelin-solidity/contracts/token/ERC20/ERC20Detailed.sol\";\nimport \"openzeppelin-solidity/contracts/token/ERC20/ERC20Burnable.sol\";\nimport \"openzeppelin-solidity/contracts/lifecycle/Pausable.sol\";\nimport \"openzeppelin-solidity/contracts/math/SafeMath.sol\";\nimport \"openzeppelin-solidity/contracts/ownership/Ownable.sol\";\nimport \"./TaxLib.sol\";\n\n/**\n * @title Axia Utility Token\n *\n * @dev Implementation of the main Axia token smart contract.\n */\ncontract TestToken is ERC20Pausable, ERC20Burnable, ERC20Detailed, Ownable\n{\n\n    /**\n     * Tax recipient.\n     */\n    address internal _taxRecipientAddr;\n\n    /**\n     * Modifiable tax container.\n     */\n    TaxLib.DynamicTax private _taxContainer;\n\n    /**\n     * @dev Event that is emited when the owner changes the tax of the token.\n     */\n    event TaxChange(\n        uint256 oldAmount,\n        uint256 oldShift,\n        uint256 newAmount,\n        uint256 newShift\n    );\n\n    uint256 public constant INITIAL_SUPPLY = 1000000000 * (10 ** 18);\n\n    mapping (address => bool) private _isExcludedFromFee;\n\n    /* Initial Holders */\n    address public _privateEarning; /*6.0% */\n    address public _teamEarning; /*15% */\n    address public _foundersEarning; /*15% */\n    address public _salesEarning; /*11% */\n    address public _communityEarning; /*20% */\n    address public _foundation; /*13% */\n    address public _ecosystem; /*12% */\n    address public _liquity; /*7% */\n    address public _tech; /*1% */\n\n    uint256 public _firstDayDate;\n\n    /**\n        The value to be returned as investback\n     */\n    uint256 public _investBackValue;\n\n    /* First Lap distribuited boolean  */\n    bool public _alreadyDistributed;\n    bool public _allowInvestBack;\n\n    /**\n        Stake reward value\n     */\n    uint256 public _stakingAmountValue;\n\n    /**\n     * @notice We usually require to know who are all the stakeholders.\n     */\n    address[] internal stakeholders;\n\n    /**\n     * @notice The stakes for each stakeholder.\n     */\n    mapping(address => uint256) internal stakes;\n\n    /**\n     * @notice The accumulated rewards for each stakeholder.\n     */\n    mapping(address => uint256) internal rewards;\n\n    constructor(address taxRecipientAddr) public ERC20Detailed(\"Test - Workshop\", \"Test\", 18)\n    {\n        _mint(msg.sender, INITIAL_SUPPLY);\n        _firstDayDate = block.timestamp;\n        _alreadyDistributed = false;\n        _isExcludedFromFee[address(this)] = true;\n        _allowInvestBack = false;\n\n        _taxRecipientAddr = taxRecipientAddr;\n\n        /**\n         * Tax: Starting at 0.9%\n         */\n        changeTax(9, 1);\n    }\n\n    function initialDistribution(\n        address payable privateEarning,\n        address payable teamEarning,\n        address payable foundersEarning,\n        address payable salesEarning,\n        address payable communityEarning,\n        address payable foundation,\n        address payable ecosystem,\n        address payable liquity,\n        address payable tech\n    ) public onlyOwner {\n        require(_alreadyDistributed == false, \"Executed only once\");\n\n        _privateEarning = privateEarning; /*6.0% */\n        _teamEarning = teamEarning; /*15% */\n        _foundersEarning = foundersEarning; /*15% */\n        _salesEarning = salesEarning; /*11% */\n        _communityEarning = communityEarning; /*20% */\n        _foundation = foundation; /*13% */\n        _ecosystem = ecosystem; /*12% */\n        _liquity = liquity; /*7% */\n        _tech = tech; /*1% */\n\n        _transfer(msg.sender, _privateEarning, 60000000 * (10**18));\n        _transfer(msg.sender, _teamEarning, 150000000 * (10**18));\n        _transfer(msg.sender, _foundersEarning, 150000000 * (10**18));\n        _transfer(msg.sender, _salesEarning, 110000000 * (10**18));\n        _transfer(msg.sender, _communityEarning, 200000000 * (10**18));\n        _transfer(msg.sender, _foundation, 130000000 * (10**18));\n        _transfer(msg.sender, _ecosystem, 120000000 * (10**18));\n        _transfer(msg.sender, _liquity, 70000000 * (10**18));\n        _transfer(msg.sender, _tech, 10000000 * (10**18));\n        _alreadyDistributed = true;\n    }\n\n    /**\n     * @dev Overrides the OpenZeppelin default transfer\n     *\n     * @param to The address to transfer to.\n     * @param value The amount to be transferred.\n     * @return If the operation was successful\n     */\n    function transfer(address to, uint256 value) public whenNotPaused returns (bool)\n    {\n        return _fullTransfer(msg.sender, to, value);\n    }\n\n    /**\n     *\n     * @param from address The address which you want to send tokens from\n     * @param to address The address which you want to transfer to\n     * @param value uint256 the amount of tokens to be transferred\n     * @return If the operation was successful\n     */\n    function transferFrom(address from, address to, uint256 value) public whenNotPaused returns (bool)\n    {\n\n        if (from == _privateEarning) {\n            require(\n                block.timestamp >= _firstDayDate + 120 days,\n                \"Private investidors blocked for 4 months...\"\n            );\n        }\n        if (from == _teamEarning) {\n            require(\n                block.timestamp >= _firstDayDate + 180 days,\n                \"Team blocked for 6 months...\"\n            );\n        }\n        if (from == _foundersEarning) {\n            require(\n                block.timestamp >= _firstDayDate + 365 days,\n                \"Founders blocked for 12 months...\"\n            );\n        }\n\n        /*\n         * Exempting the tax account to avoid an infinite loop in transferring values from this wallet.\n         */\n        if (from == taxRecipientAddr() || to == taxRecipientAddr())\n        {\n            super.transferFrom(from, to, value);\n\n            return true;\n        }\n\n        uint256 taxValue = _applyTax(value);\n\n        if (_isExcludedFromFee[from] == false) {\n            if(_allowInvestBack) {\n                \n                uint256 investValue = _applyInvestBack(taxValue);\n\n                _investBackFee(investValue);\n\n                taxValue = taxValue.sub(investValue);\n            }\n            // Transfer the tax to the recipient\n            super.transferFrom(from, taxRecipientAddr(), taxValue);\n        }\n\n        // Transfer user's tokens\n        super.transferFrom(from, to, value);\n\n        return true;\n    }\n\n    /**\n     * @dev Batch token transfer (maxium 100 transfers)\n     *\n     * @param recipients The recipients for transfer to\n     * @param values The values\n     * @param from Spender address\n     * @return If the operation was successful\n     */\n    function sendBatch(address[] memory recipients, uint256[] memory values, address from) public whenNotPaused returns (bool)\n    {\n        if (from == _privateEarning) {\n            require(\n                block.timestamp >= _firstDayDate + 120 days,\n                \"Private investidors blocked for 4 months...\"\n            );\n        }\n        if (from == _teamEarning) {\n            require(\n                block.timestamp >= _firstDayDate + 180 days,\n                \"Team blocked for 6 months...\"\n            );\n        }\n        if (from == _foundersEarning) {\n            require(\n                block.timestamp >= _firstDayDate + 365 days,\n                \"Founders blocked for 12 months...\"\n            );\n        }\n\n        /*\n         * The maximum batch send should be 100 transactions.\n         * Each transaction we recommend 65000 of GAS limit and the maximum block size is 6700000.\n         * 6700000 / 65000 = ~103.0769  100 transacitons (safe rounded).\n         */\n        uint maxTransactionCount = 100;\n        uint transactionCount = recipients.length;\n\n        require(transactionCount <= maxTransactionCount, \"Max transaction count violated\");\n        require(transactionCount == values.length, \"Wrong data\");\n\n        if (msg.sender == from)\n        {\n            return _sendBatchSelf(recipients, values, transactionCount);\n        }\n\n        return _sendBatchFrom(recipients, values, from, transactionCount);\n    }\n\n    /**\n     * @dev Batch token transfer from MSG sender\n     *\n     * @param recipients The recipients for transfer to\n     * @param values The values\n     * @param transactionCount Total transaction count\n     * @return If the operation was successful\n     */\n    function _sendBatchSelf(address[] memory recipients, uint256[] memory values, uint transactionCount) private returns (bool)\n    {\n        if (msg.sender == _privateEarning) {\n            require(\n                block.timestamp >= _firstDayDate + 120 days,\n                \"Private investidors blocked for 4 months...\"\n            );\n        }\n        if (msg.sender == _teamEarning) {\n            require(\n                block.timestamp >= _firstDayDate + 180 days,\n                \"Team blocked for 6 months...\"\n            );\n        }\n        if (msg.sender == _foundersEarning) {\n            require(\n                block.timestamp >= _firstDayDate + 365 days,\n                \"Founders blocked for 12 months...\"\n            );\n        }\n\n        for (uint i = 0; i < transactionCount; i++)\n        {\n            _fullTransfer(msg.sender, recipients[i], values[i]);\n        }\n\n        return true;\n    }\n\n    /**\n     * @dev Batch token transfer from other sender\n     *\n     * @param recipients The recipients for transfer to\n     * @param values The values\n     * @param from Spender address\n     * @param transactionCount Total transaction count\n     * @return If the operation was successful\n     */\n    function _sendBatchFrom(address[] memory recipients, uint256[] memory values, address from, uint transactionCount) private returns (bool)\n    {\n        for (uint i = 0; i < transactionCount; i++)\n        {\n            transferFrom(from, recipients[i], values[i]);\n        }\n\n        return true;\n    }\n\n    /**\n     * @dev Special Axia transfer token for a specified address.\n     *\n     * @param from The address of the spender\n     * @param to The address to transfer to.\n     * @param value The amount to be transferred.\n     * @return If the operation was successful\n     */\n    function _fullTransfer(address from, address to, uint256 value) private returns (bool)\n    {\n\n        if (from == _privateEarning) {\n            require(\n                block.timestamp >= _firstDayDate + 120 days,\n                \"Private investidors blocked for 4 months...\"\n            );\n        }\n        if (from == _teamEarning) {\n            require(\n                block.timestamp >= _firstDayDate + 180 days,\n                \"Team blocked for 6 months...\"\n            );\n        }\n        if (from == _foundersEarning) {\n            require(\n                block.timestamp >= _firstDayDate + 365 days,\n                \"Founders blocked for 12 months...\"\n            );\n        }\n\n        /*\n         * Exempting the tax account to avoid an infinite loop in transferring values from this wallet.\n         */\n        if (from == taxRecipientAddr() || to == taxRecipientAddr())\n        {\n            _transfer(from, to, value);\n\n            return true;\n        }\n\n        if (_isExcludedFromFee[msg.sender] == false) {\n            uint256 taxValue = _applyTax(value);\n            if(_allowInvestBack) {\n                \n                uint256 investValue = _applyInvestBack(taxValue);\n\n                _investBackFee(investValue);\n\n                taxValue = taxValue.sub(investValue);\n            }\n\n            // Transfer the tax to the recipient\n            _transfer(from, taxRecipientAddr(), taxValue);\n\n        }\n\n        // Transfer user's tokens\n        _transfer(from, to, value);\n\n        return true;\n    }\n\n    function isExcludedFromFee(address account) public view returns(bool) {\n        return _isExcludedFromFee[account];\n    }\n\n    function includeInFee(address account) public onlyOwner {\n        _isExcludedFromFee[account] = false;\n    }\n\n    function excludeFromFee(address account) public onlyOwner {\n        _isExcludedFromFee[account] = true;\n    }\n\n    function disableInvestBack() public onlyOwner {\n        _allowInvestBack = false;\n    }\n\n    function allowInvestBack() public onlyOwner {\n        _allowInvestBack = true;\n    }\n\n    /**\n        Reflection mechanism\n     */\n    function _investBackFee(uint256 tFee) private {\n        _burn(msg.sender, tFee);\n        if(stakes[msg.sender] == 0) addStakeholder(msg.sender);\n        stakes[msg.sender] = stakes[msg.sender].add(tFee);\n    }\n\n    /** \n        Stake Mechanism\n     */\n\n    /**\n     * @notice A method for a stakeholder to create a stake.\n     * @param _stake The size of the stake to be created.\n     */\n    function createStake(uint256 _stake)\n        public\n    {\n        _burn(msg.sender, _stake);\n        if(stakes[msg.sender] == 0) addStakeholder(msg.sender);\n        stakes[msg.sender] = stakes[msg.sender].add(_stake);\n    }\n\n    /**\n     * @notice A method for a stakeholder to remove a stake.\n     */\n    function removeStake()\n        public\n    {\n        if(stakes[msg.sender] > 0) {\n            removeStakeholder(msg.sender);\n            _mint(msg.sender, stakes[msg.sender]);\n            stakes[msg.sender] = 0;\n        }\n    }\n\n    /**\n     * @notice A method to retrieve the stake for a stakeholder.\n     * @param _stakeholder The stakeholder to retrieve the stake for.\n     * @return uint256 The amount of wei staked.\n     */\n    function stakeOf(address _stakeholder)\n        public\n        view\n        returns(uint256)\n    {\n        return stakes[_stakeholder];\n    }\n\n    /**\n     * @notice A method to the aggregated stakes from all stakeholders.\n     * @return uint256 The aggregated stakes from all stakeholders.\n     */\n    function totalStakes()\n        public\n        view\n        returns(uint256)\n    {\n        uint256 _totalStakes = 0;\n        for (uint256 s = 0; s < stakeholders.length; s += 1){\n            _totalStakes = _totalStakes.add(stakes[stakeholders[s]]);\n        }\n        return _totalStakes;\n    }\n\n    // ---------- STAKEHOLDERS ----------\n\n    /**\n     * @notice A method to check if an address is a stakeholder.\n     * @param _address The address to verify.\n     * @return bool, uint256 Whether the address is a stakeholder, \n     * and if so its position in the stakeholders array.\n     */\n    function isStakeholder(address _address)\n        public\n        view\n        returns(bool, uint256)\n    {\n        for (uint256 s = 0; s < stakeholders.length; s += 1){\n            if (_address == stakeholders[s]) return (true, s);\n        }\n        return (false, 0);\n    }\n\n    /**\n     * @notice A method to add a stakeholder.\n     * @param _stakeholder The stakeholder to add.\n     */\n    function addStakeholder(address _stakeholder)\n        public\n    {\n        (bool _isStakeholder, ) = isStakeholder(_stakeholder);\n        if(!_isStakeholder) stakeholders.push(_stakeholder);\n    }\n\n    /**\n     * @notice A method to remove a stakeholder.\n     * @param _stakeholder The stakeholder to remove.\n     */\n    function removeStakeholder(address _stakeholder)\n        private\n    {\n        (bool _isStakeholder, uint256 s) = isStakeholder(_stakeholder);\n        if(_isStakeholder){\n            stakeholders[s] = stakeholders[stakeholders.length - 1];\n            stakeholders.pop();\n        } \n    }\n\n    // ---------- REWARDS ----------\n    \n    /**\n     * @notice A method to allow a stakeholder to check his rewards.\n     * @param _stakeholder The stakeholder to check rewards for.\n     */\n    function rewardOf(address _stakeholder) \n        public\n        view\n        returns(uint256)\n    {\n        return rewards[_stakeholder];\n    }\n\n    /**\n     * @notice A method to the aggregated rewards from all stakeholders.\n     * @return uint256 The aggregated rewards from all stakeholders.\n     */\n    function totalRewards()\n        public\n        view\n        returns(uint256)\n    {\n        uint256 _totalRewards = 0;\n        for (uint256 s = 0; s < stakeholders.length; s += 1){\n            _totalRewards = _totalRewards.add(rewards[stakeholders[s]]);\n        }\n        return _totalRewards;\n    }\n\n    /** \n     * @notice A simple method that calculates the rewards for each stakeholder.\n     * @param _stakeholder The stakeholder to calculate rewards for.\n     */\n    function calculateReward(address _stakeholder)\n        public\n        view\n        returns(uint256)\n    {\n        uint256 temp = stakes[_stakeholder].mul(_stakingAmountValue);\n\n        return temp / 100;\n    }\n\n    /**\n     * @notice A method to distribute rewards to all stakeholders.\n     */\n    function distributeRewards() \n        public\n        onlyOwner\n    {\n        for (uint256 s = 0; s < stakeholders.length; s += 1){\n            address stakeholder = stakeholders[s];\n            uint256 reward = calculateReward(stakeholder);\n            rewards[stakeholder] = rewards[stakeholder].add(reward);\n        }\n    }\n\n    /**\n     * @notice A method to allow a stakeholder to withdraw his rewards.\n     */\n    function withdrawReward() \n        public\n    {\n        uint256 reward = rewards[msg.sender];\n        rewards[msg.sender] = 0;\n        _transfer(_liquity, msg.sender, reward);\n    }\n\n    /**\n        Invest back methods\n    */\n    function changeInvestBackFee(uint256 amount) public onlyOwner {\n        _investBackValue = amount;\n    }\n\n    /**\n        Invest back methods\n    */\n    function changeStakeFee(uint256 amount) public onlyOwner {\n        _stakingAmountValue = amount;\n    }\n\n    /**\n     * @dev Apply the tax based on the dynamic tax container\n     *\n     * @param value The value of transaction\n     */\n    function _applyInvestBack(uint256 value) internal view returns (uint256)\n    {\n        uint256 temp = value.mul(_investBackValue);\n\n        return temp.div(100);\n    }\n\n    /**\n        Taxation methods\n     */\n\n     /**\n     * Returns the tax recipient account\n     */\n    function taxRecipientAddr() public view returns (address)\n    {\n        return _taxRecipientAddr;\n    }\n\n    /**\n     * @dev Get the current tax amount.\n     */\n    function currentTaxAmount() public view returns (uint256)\n    {\n        return _taxContainer.amount;\n    }\n\n    /**\n     * @dev Get the current tax shift.\n     */\n    function currentTaxShift() public view returns (uint256)\n    {\n        return _taxContainer.shift;\n    }\n\n    /**\n     * @dev Change the dynamic tax.\n     *\n     * Just the contract admin can change the taxes.\n     * The possible tax range is 0% ~ 3% and cannot exceed it.\n     * @param amount The new tax amount chosen\n     */\n    function changeTax(uint256 amount, uint256 shift) public onlyOwner\n    {\n        if (shift == 0)\n        {\n            require(amount <= 3, \"You can't set a tax greater than 3%\");\n        }\n\n        emit TaxChange(\n            _taxContainer.amount,\n            _taxContainer.shift,\n            amount,\n            shift\n        );\n\n        _taxContainer = TaxLib.DynamicTax(\n            amount,\n\n            // The maximum decimal places value is checked here\n            TaxLib.normalizeShiftAmount(shift)\n        );\n    }\n\n    /**\n     * @dev Apply the tax based on the dynamic tax container\n     *\n     * @param value The value of transaction\n     */\n    function _applyTax(uint256 value) internal view returns (uint256)\n    {\n        return TaxLib.applyTax(\n            _taxContainer.amount,\n            _taxContainer.shift,\n            value\n        );\n    }\n}",
  "sourcePath": "/home/mateus/repos/SmartContracts/TestContracts/axia/contracts/TestToken.sol",
  "compiler": {
    "name": "solc",
    "version": "0.5.16+commit.9c3226ce.Emscripten.clang"
  },
  "schemaVersion": "3.4.11",
  "updatedAt": "2023-03-16T23:26:09.472Z",
  "networkType": "ethereum",
  "devdoc": {
    "details": "Implementation of the main Axia token smart contract.",
    "methods": {
      "addStakeholder(address)": {
        "params": {
          "_stakeholder": "The stakeholder to add."
        }
      },
      "allowance(address,address)": {
        "details": "See {IERC20-allowance}."
      },
      "balanceOf(address)": {
        "details": "See {IERC20-balanceOf}."
      },
      "burn(uint256)": {
        "details": "Destroys `amount` tokens from the caller.     * See {ERC20-_burn}."
      },
      "burnFrom(address,uint256)": {
        "details": "See {ERC20-_burnFrom}."
      },
      "calculateReward(address)": {
        "params": {
          "_stakeholder": "The stakeholder to calculate rewards for."
        }
      },
      "changeTax(uint256,uint256)": {
        "details": "Change the dynamic tax.     * Just the contract admin can change the taxes. The possible tax range is 0% ~ 3% and cannot exceed it.",
        "params": {
          "amount": "The new tax amount chosen"
        }
      },
      "createStake(uint256)": {
        "params": {
          "_stake": "The size of the stake to be created."
        }
      },
      "currentTaxAmount()": {
        "details": "Get the current tax amount."
      },
      "currentTaxShift()": {
        "details": "Get the current tax shift."
      },
      "decimals()": {
        "details": "Returns the number of decimals used to get its user representation. For example, if `decimals` equals `2`, a balance of `505` tokens should be displayed to a user as `5,05` (`505 / 10 ** 2`).     * Tokens usually opt for a value of 18, imitating the relationship between Ether and Wei.     * NOTE: This information is only used for _display_ purposes: it in no way affects any of the arithmetic of the contract, including {IERC20-balanceOf} and {IERC20-transfer}."
      },
      "isOwner()": {
        "details": "Returns true if the caller is the current owner."
      },
      "isStakeholder(address)": {
        "params": {
          "_address": "The address to verify."
        },
        "return": "bool, uint256 Whether the address is a stakeholder,  and if so its position in the stakeholders array."
      },
      "name()": {
        "details": "Returns the name of the token."
      },
      "owner()": {
        "details": "Returns the address of the current owner."
      },
      "pause()": {
        "details": "Called by a pauser to pause, triggers stopped state."
      },
      "paused()": {
        "details": "Returns true if the contract is paused, and false otherwise."
      },
      "renounceOwnership()": {
        "details": "Leaves the contract without owner. It will not be possible to call `onlyOwner` functions anymore. Can only be called by the current owner.     * NOTE: Renouncing ownership will leave the contract without an owner, thereby removing any functionality that is only available to the owner."
      },
      "rewardOf(address)": {
        "params": {
          "_stakeholder": "The stakeholder to check rewards for."
        }
      },
      "sendBatch(address[],uint256[],address)": {
        "details": "Batch token transfer (maxium 100 transfers)",
        "params": {
          "from": "Spender address",
          "recipients": "The recipients for transfer to",
          "values": "The values"
        },
        "return": "If the operation was successful"
      },
      "stakeOf(address)": {
        "params": {
          "_stakeholder": "The stakeholder to retrieve the stake for."
        },
        "return": "uint256 The amount of wei staked."
      },
      "symbol()": {
        "details": "Returns the symbol of the token, usually a shorter version of the name."
      },
      "totalRewards()": {
        "return": "uint256 The aggregated rewards from all stakeholders."
      },
      "totalStakes()": {
        "return": "uint256 The aggregated stakes from all stakeholders."
      },
      "totalSupply()": {
        "details": "See {IERC20-totalSupply}."
      },
      "transfer(address,uint256)": {
        "details": "Overrides the OpenZeppelin default transfer",
        "params": {
          "to": "The address to transfer to.",
          "value": "The amount to be transferred."
        },
        "return": "If the operation was successful"
      },
      "transferFrom(address,address,uint256)": {
        "params": {
          "from": "address The address which you want to send tokens from",
          "to": "address The address which you want to transfer to",
          "value": "uint256 the amount of tokens to be transferred"
        },
        "return": "If the operation was successful"
      },
      "transferOwnership(address)": {
        "details": "Transfers ownership of the contract to a new account (`newOwner`). Can only be called by the current owner."
      },
      "unpause()": {
        "details": "Called by a pauser to unpause, returns to normal state."
      }
    },
    "title": "Axia Utility Token"
  },
  "userdoc": {
    "methods": {
      "addStakeholder(address)": {
        "notice": "A method to add a stakeholder."
      },
      "calculateReward(address)": {
        "notice": "A simple method that calculates the rewards for each stakeholder."
      },
      "changeInvestBackFee(uint256)": {
        "notice": "Invest back methods"
      },
      "changeStakeFee(uint256)": {
        "notice": "Invest back methods"
      },
      "createStake(uint256)": {
        "notice": "A method for a stakeholder to create a stake."
      },
      "distributeRewards()": {
        "notice": "A method to distribute rewards to all stakeholders."
      },
      "isStakeholder(address)": {
        "notice": "A method to check if an address is a stakeholder."
      },
      "removeStake()": {
        "notice": "A method for a stakeholder to remove a stake."
      },
      "rewardOf(address)": {
        "notice": "A method to allow a stakeholder to check his rewards."
      },
      "stakeOf(address)": {
        "notice": "A method to retrieve the stake for a stakeholder."
      },
      "taxRecipientAddr()": {
        "notice": "Returns the tax recipient account"
      },
      "totalRewards()": {
        "notice": "A method to the aggregated rewards from all stakeholders."
      },
      "totalStakes()": {
        "notice": "A method to the aggregated stakes from all stakeholders."
      },
      "withdrawReward()": {
        "notice": "A method to allow a stakeholder to withdraw his rewards."
      }
    }
  }
}